:020000040800F2
:10000000005000208D5E0008490E00084D0E0008CB
:10001000510E0008550E0008590E0008000000009F
:100020000000000000000000000000005D0E00085D
:10003000610E000800000000650E0008690E00084F
:10004000710E0008750E0008790E00087D0E00087C
:10005000810E0008850E0008890E00088D0E00082C
:10006000910E0008950E0008990E00089D0E0008DC
:10007000F10E0008F50E0008F90E0008FD0E00084C
:10008000010F0008050F0008090F00080D0F0008F8
:10009000110F0008190F00081D0F0008210F00089C
:1000A000250F0008290F00082D0F0008310F000848
:1000B000350F0008390F00083D0F0008410F0008F8
:1000C000450F0008490F00084D0F0008510F0008A8
:1000D000550F0008590F00085D0F0008610F000858
:1000E000650F0008690F00086D0F00080000000090
:1000F0000000000000000000000000000000000000
:0C01000000000000000000005FF808F1A3
:1001100010B5054C237833B9044B13B10448AFF341
:1001200000800123237010BDB802002000000000F1
:10013000B4A30008084B10B51BB108490848AFF339
:1001400000800848036803B910BD074B002BFBD0A3
:10015000BDE81040184700BF00000000BC020020AE
:10016000B4A30008B802002000000000034613F802
:10017000012B002AFBD1181A0138704781F0004189
:1001800002E000BF83F0004330B54FEA41044FEA7C
:10019000430594EA050F08BF90EA020F1FBF54EA17
:1001A000000C55EA020C7FEA645C7FEA655C00F0B3
:1001B000E2804FEA5454D4EB5555B8BF6D420CDD84
:1001C0002C4480EA020281EA030382EA000083EA07
:1001D000010180EA020281EA0303362D88BF30BDA7
:1001E00011F0004F4FEA01314FF4801C4CEA1131FD
:1001F00002D0404261EB410113F0004F4FEA03335C
:100200004CEA133302D0524263EB430394EA050FE6
:1002100000F0A780A4F10104D5F1200E0DDB02FA55
:100220000EFC22FA05F2801841F1000103FA0EF2E9
:10023000801843FA05F359410EE0A5F120050EF1AF
:10024000200E012A03FA0EFC28BF4CF0020C43FAE0
:1002500005F3C01851EBE37101F0004507D54FF0ED
:10026000000EDCF1000C7EEB00006EEB0101B1F53D
:10027000801F1BD3B1F5001F0CD349085FEA300083
:100280004FEA3C0C04F101044FEA445212F5800F8E
:1002900080F09A80BCF1004F08BF5FEA500C50F12B
:1002A000000041EB045141EA050130BD5FEA4C0C0E
:1002B000404141EB010111F4801FA4F10104E9D197
:1002C00091F0000F04BF01460020B1FA81F308BF8E
:1002D0002033A3F10B03B3F120020CDA0C3208DD5A
:1002E00002F1140CC2F10C0201FA0CF021FA02F135
:1002F0000CE002F11402D8BFC2F1200C01FA02F1A5
:1003000020FA0CFCDCBF41EA0C019040E41AA2BFC9
:1003100001EB0451294330BD6FEA04041F3C1CDA91
:100320000C340EDC04F11404C4F1200220FA04F0B1
:1003300001FA02F340EA030021FA04F345EA03015B
:1003400030BDC4F10C04C4F1200220FA02F001FA1D
:1003500004F340EA0300294630BD21FA04F029469F
:1003600030BD94F0000F83F4801306BF81F4801138
:100370000134013D4EE77FEA645C18BF7FEA655CAB
:1003800029D094EA050F08BF90EA020F05D054EA7D
:10039000000C04BF1946104630BD91EA030F1EBF82
:1003A0000021002030BD5FEA545C05D14000494186
:1003B00028BF41F0004130BD14F580043CBF01F579
:1003C000801130BD01F0004545F0FE4141F470015F
:1003D0004FF0000030BD7FEA645C1ABF194610463A
:1003E0007FEA655C1CBF0B46024650EA013406BF3B
:1003F00052EA033591EA030F41F4002130BD00BFFA
:1004000090F0000F04BF0021704730B54FF48064B6
:1004100004F132044FF000054FF0000150E700BF37
:1004200090F0000F04BF0021704730B54FF4806496
:1004300004F1320410F0004548BF40424FF0000183
:100440003EE700BF42004FEAE2014FEA31014FEAC6
:1004500002701FBF12F07F4393F07F4F81F0605115
:10046000704792F0000F14BF93F07F4F704730B584
:100470004FF4607401F0004521F0004120E700BF17
:1004800050EA010208BF704730B54FF000050AE09E
:1004900050EA010208BF704730B511F0004502D59F
:1004A000404261EB41014FF4806404F132045FEAA1
:1004B000915C3FF4DCAE4FF003025FEADC0C18BF46
:1004C00003325FEADC0C18BF033202EBDC02C2F13C
:1004D000200300FA03FC20FA02F001FA03FE40EACE
:1004E0000E0021FA02F11444C1E600BF70B54FF0CE
:1004F000FF0C4CF4E06C1CEA11541DBF1CEA1355B0
:1005000094EA0C0F95EA0C0F00F0DEF82C4481EA17
:10051000030621EA4C5123EA4C5350EA013518BF37
:1005200052EA033541F4801143F4801338D0A0FB24
:1005300002CE4FF00005E1FB02E506F00042E0FBD1
:1005400003E54FF00006E1FB03569CF0000F18BFD7
:100550004EF0010EA4F1FF04B6F5007F64F540747F
:1005600004D25FEA4E0E6D4146EB060642EAC62112
:1005700041EA55514FEAC52040EA5E504FEACE2E7F
:10058000B4F1FD0C88BFBCF5E06F1ED8BEF1004F82
:1005900008BF5FEA500E50F1000041EB045170BDFE
:1005A00006F0004646EA010140EA020081EA030142
:1005B000B4EB5C04C2BFD4EB0C0541EA045170BD3E
:1005C00041F480114FF0000E013C00F3AB8014F1B8
:1005D000360FDEBF002001F0004170BDC4F1000401
:1005E000203C35DA0C341BDC04F11404C4F1200582
:1005F00000FA05F320FA04F001FA05F240EA0200DD
:1006000001F0004221F0004110EBD37021FA04F612
:1006100042EB06015EEA430E08BF20EAD37070BDCC
:10062000C4F10C04C4F1200500FA04F320FA05F02B
:1006300001FA04F240EA020001F0004110EBD3702D
:1006400041F100015EEA430E08BF20EAD37070BD9D
:10065000C4F1200500FA05F24EEA020E20FA04F376
:1006600001FA05F243EA020321FA04F001F0004125
:1006700021FA04F220EA020000EBD3705EEA430E96
:1006800008BF20EAD37070BD94F0000F0FD101F0C5
:100690000046400041EB010111F4801F08BF013CFE
:1006A000F7D041EA060195F0000F18BF704703F03C
:1006B0000046520043EB030313F4801F08BF013DC3
:1006C000F7D043EA0603704794EA0C0F0CEA13557F
:1006D00018BF95EA0C0F0CD050EA410618BF52EA39
:1006E0004306D1D181EA030101F000414FF000003F
:1006F00070BD50EA410606BF1046194652EA43064D
:1007000019D094EA0C0F02D150EA013613D195EAC0
:100710000C0F05D152EA03361CBF104619460AD108
:1007200081EA030101F0004141F0FE4141F4700112
:100730004FF0000070BD41F0FE4141F4780170BD02
:1007400070B54FF0FF0C4CF4E06C1CEA11541DBF67
:100750001CEA135594EA0C0F95EA0C0F00F0A7F869
:10076000A4EB050481EA030E52EA03354FEA013196
:1007700000F088804FEA03334FF0805545EA1313A9
:1007800043EA12634FEA022245EA111545EA106571
:100790004FEA00260EF000419D4208BF964244F108
:1007A000FD0404F5407402D25B084FEA3202B61A27
:1007B00065EB03055B084FEA32024FF480104FF4FB
:1007C000002CB6EB020E75EB030E22BFB61A75466F
:1007D00040EA0C005B084FEA3202B6EB020E75EB02
:1007E000030E22BFB61A754640EA5C005B084FEA6A
:1007F0003202B6EB020E75EB030E22BFB61A754637
:1008000040EA9C005B084FEA3202B6EB020E75EB41
:10081000030E22BFB61A754640EADC0055EA060E02
:1008200018D04FEA051545EA16754FEA06164FEA45
:10083000C30343EA52734FEAC2025FEA1C1CC0D1F1
:1008400011F4801F0BD141EA00014FF000004FF07E
:10085000004CB6E711F4801F04BF01430020B4F13F
:10086000FD0C88BFBCF5E06F3FF6AFAEB5EB030CF7
:1008700004BFB6EB020C5FEA500C50F1000041EBF4
:10088000045170BD0EF0004E4EEA113114EB5C04C1
:10089000C2BFD4EB0C0541EA045170BD41F4801194
:1008A0004FF0000E013C90E645EA060E8DE60CEA9C
:1008B000135594EA0C0F08BF95EA0C0F3FF43BAFB9
:1008C00094EA0C0F0AD150EA01347FF434AF95EA70
:1008D0000C0F7FF425AF104619462CE795EA0C0F54
:1008E00006D152EA03353FF4FDAE1046194622E721
:1008F00050EA410618BF52EA43067FF4C5AE50EAFB
:1009000041047FF40DAF52EA43057FF4EBAE12E7EA
:100910004FF0FF3C06E000BF4FF0010C02E000BFCB
:100920004FF0010C4DF804CD4FEA410C7FEA6C5CAE
:100930004FEA430C18BF7FEA6C5C1BD001B050EA51
:10094000410C0CBF52EA430C91EA030F02BF90EA3C
:10095000020F0020704710F1000F91EA030F58BFFB
:10096000994208BF90422CBFD8176FEAE37040F05D
:10097000010070474FEA410C7FEA6C5C02D150EAFB
:10098000013C07D14FEA430C7FEA6C5CD6D152EAB6
:10099000033CD3D05DF8040B704700BF844610467B
:1009A00062468C461946634600E000BF01B5FFF77A
:1009B000B7FF002848BF10F1000F01BD4DF808ED4A
:1009C000FFF7F4FF0CBF012000205DF808FB00BF1B
:1009D0004DF808EDFFF7EAFF34BF012000205DF875
:1009E00008FB00BF4DF808EDFFF7E0FF94BF0120C2
:1009F00000205DF808FB00BF4DF808EDFFF7CEFFC3
:100A000094BF012000205DF808FB00BF4DF808ED01
:100A1000FFF7C4FF34BF012000205DF808FB00BFD2
:100A20004FEA410C7FEA6C5C02D150EA013C0AD1EA
:100A30004FEA430C7FEA6C5C02D152EA033C02D1DC
:100A40004FF0000070474FF0010070474FEA41023D
:100A500012F5001215D211D56FF47873B3EB625210
:100A600012D94FEAC12343F0004343EA505311F037
:100A7000004F23FA02F018BF404270474FF00000C9
:100A8000704750EA013005D111F0004008BF6FF007
:100A9000004070474FF00000704700BF4A0011D27D
:100AA00012F5001211D20DD56FF47873B3EB6252C8
:100AB0000ED44FEAC12343F0004343EA505323FAD4
:100AC00002F070474FF00000704750EA013002D149
:100AD0004FF0FF3070474FF0000070474FEA41027F
:100AE000B2F1E04324BFB3F5001CDCF1FE5C0DD98C
:100AF00001F0004C4FEAC0024CEA5070B2F1004FD6
:100B000040EB830008BF20F00100704711F0804FD8
:100B100021D113F13872BCBF01F00040704741F49D
:100B200080114FEA5252C2F11802C2F1200C10FAA1
:100B30000CF320FA02F018BF40F001004FEAC12385
:100B40004FEAD32303FA0CFC40EA0C0023FA02F329
:100B50004FEA4303CCE77FEA625307D150EA0133FF
:100B60001EBF4FF0FE4040F44000704701F00040CF
:100B700040F0FE4040F40000704700BF82B0002308
:100B8000019302E0019B0133019342F2107303FBD6
:100B900000F3019A9342F5DC02B0704730B583B0A0
:100BA0004FF48075ADF8045003238DF80630102300
:100BB0008DF807300B4C01A9204600F049FB0122BB
:100BC0002946204600F0D8FB04F07EFE4FF6FF7069
:100BD00004F06CFD40F21F5004F05CFD04F0FAFDDF
:100BE00003B030BD0008014000B583B0FFF7D6FF69
:100BF000074804F001FE4FF0FF326946054B1868C4
:100C000003F020F80128F6D1019805F0C1FFF2E7C2
:100C1000D0A30008B448002000B585B003F002FC62
:100C20000390254B029341F2883103A803F0F8FCAE
:100C300003F0ACFF012802D0204B029333E004F014
:100C4000CBF9012802D01E4B02932CE004F0AAFC41
:100C5000012802D01B4B029325E004F0CDFB0128B4
:100C600002D0194B02931EE004F0E6FA012802D0EC
:100C7000164B029317E004F0F7FC012802D0144B46
:100C8000029310E004F062FA012802D0114B0293A3
:100C900009E0114B1B8803EB430203EB82020F496F
:100CA000054805F0F3FF00234FF0FF3201A90C487F
:100CB000006802F043FFB6E7D402002090C90008A4
:100CC000A4C90008BCC90008D0C90008E4C90008CC
:100CD000F8C9000808CA0008A44800201CCA000877
:100CE000B448002008B500F0FBFB4FF4803000F062
:100CF00017FC312000F018FE0028FAD002221C4B0D
:100D00001A60002000F0B2FC002000F0F3FC4FF469
:100D1000806000F0CFFC4FF4E0114FF4803000F021
:100D20002DFC012000F076FC392000F0FDFD0028AC
:100D3000FAD0022000F07EFC00F090FC0828FBD1E5
:100D400001217D2000F058FD01214FF4804000F08A
:100D500079FD00214FF0006000F008FA4FF4407078
:100D600000F098F9042000F023FA03F0CFFD08BD4D
:100D70000020024030B583B0FFF7B4FF002003F03D
:100D800005FE6420FFF7FAFE012003F0FFFD64205A
:100D9000FFF7F4FE022003F0F9FD6420FFF7EEFEFA
:100DA000214805F067FF00220821032002F0ACFE75
:100DB0001E4B1860022003F04DFE04F0E1F8012004
:100DC00004F08AFB022004F0EFFA002004F030FC6B
:100DD000012004F07BFA03224FF4E131012004F0FA
:100DE0008DF9134805F046FF002401940325009572
:100DF0002346B2220F49104803F09CF90194009455
:100E0000234680220D490E4803F094F9284604F049
:100E100001FA04F0E5FF03F0CDFA0A4805F02AFFD5
:100E2000204603B030BD00BF2CCA0008B4480020E3
:100E300040CA000850CA0008190C000858CA000827
:100E4000E90B00085CCA0008704700BFFEE700BF5E
:100E5000FEE700BFFEE700BFFEE700BF704700BF30
:100E6000704700BF704700BF08B500F0E1F808BD4B
:100E7000704700BF704700BF704700BF704700BF9A
:100E8000704700BF704700BF704700BF704700BF8A
:100E9000704700BF704700BF704700BF08B507220A
:100EA000104B1A70104B1B681B09104A1268A3EBF9
:100EB0001212042A11D90B48437002224FF4807198
:100EC00002F0ECF80221012002F0EAF9012002F020
:100ED00055F9054B1A68054B1A60022000F086F997
:100EE00008BD00BFB8480020F0020020F402002036
:100EF000704700BF704700BF704700BF704700BF1A
:100F0000704700BF704700BF704700BF704700BF09
:100F100008B502F03DFA08BD704700BF704700BF3A
:100F2000704700BF704700BF704700BF704700BFE9
:100F3000704700BF704700BF704700BF704700BFD9
:100F4000704700BF704700BF704700BF704700BFC9
:100F5000704700BF704700BF704700BF704700BFB9
:100F6000704700BF704700BF704700BF08B54FF41F
:100F7000802000F05BF908BD08B50322034B1A601E
:100F80000121084600F084FA08BD00BF00030020DC
:100F900008B54FF4803000F0C3FA00F0FFFC0120E8
:100FA00000F038FB392000F0BFFC0028FAD0022006
:100FB00000F040FB00F052FB0828FBD1054B9B7A68
:100FC0001BB10522044B1A6008BD0122024B1A60B6
:100FD00008BD00BFCC48002000030020124B1A6857
:100FE0000433186804331968EAB110B40F4B9A70CF
:100FF000C2F307241C71C2F307449C71120E1A72CB
:101000009872C0F307221A73C0F307429A73000E56
:1010100018749974C1F307221A75C1F307429A75BF
:10102000090E197610BC7047E8F7FF1F1400002066
:10103000034B1B681BB1024A1368013B13607047E6
:10104000F802002008B50146014805F0A1FD08BDE1
:1010500070CA000808B50A460146024805F098FD26
:10106000FEE700BFB4CA000870B50E46154600245E
:101070000AE0315D064801F02DF98021044801F0B5
:1010800055F90028F9D00134AC42F2D3284670BD9E
:101090000038014010B50446B0F5E06F0FD0B0F550
:1010A000C06F0CD0B0F5A06F09D0B0F5806F06D03E
:1010B000B0F5407F03D062210448FFF7CBFF44F036
:1010C000BF6444F40034024BDC6010BDE4CA000885
:1010D00000ED00E010B50446C378012B03D974215C
:1010E0001F48FFF7B7FF63780F2B03D975211C4802
:1010F000FFF7B0FFA3780F2B03D976211848FFF72D
:10110000A9FFE378FBB1174BDB68DB43C3F3022392
:10111000C3F104010F22DA40637803FA01F1A378E6
:1011200013400B431B012278DBB20F490A4482F8BB
:1011300000332378580903F01F03012202FA03F356
:1011400041F8203010BD23785A0903F01F03012114
:1011500001FA03F32032044941F8223010BD00BFE8
:10116000E4CA000800ED00E000E100E038B5054603
:101170000C46B0F1005F06D0B0F1006F03D09D21A6
:101180000848FFF767FF084B9C4203D99E2105489A
:10119000FFF760FF24F0604121F07F012943034BFA
:1011A000996038BDE4CA0008FEFF070000ED00E0CA
:1011B00010B50446042806D010F1050F03D0C8214D
:1011C0000848FFF747FF042C05D1074A136843F08E
:1011D0000403136010BD044A136823F00403136072
:1011E00010BD00BFE4CA000810E000E010B50446DE
:1011F00010F0704F02D0094B034003B924B94FF4EB
:10120000FD710748FFF726FF14F0805F02D0054B01
:101210005C6010BD044B5C6010BD00BF0000F0EFCF
:101220000CCB0008000402400000024010B5044648
:10123000030D1B0503B918B9FB210348FFF70AFF8B
:10124000024B5C6110BD00BF3CCB000800040140B4
:10125000F8B505460C46464B98421BD003F5806313
:10126000984217D003F58063984213D003F580634A
:1012700098420FD003F5806398420BD003F580634A
:10128000984207D003F58063984203D0B1213948D2
:10129000FFF7E0FEE3788BB1042B0FD0282B0DD0A5
:1012A000482B0BD0142B09D0102B07D01C2B05D0AA
:1012B000182B03D0B2212F48FFF7CCFE23881BB98F
:1012C000B3212C48FFF7C6FEE37803F00F06304643
:1012D00013F0100F0AD0A378013BDBB2022B03D925
:1012E000BA212448FFF7B6FEA07830432378E3B153
:1012F0002E68002316E001229A40218832EA01017B
:101300000FD199000F278F4026EA070600FA01F156
:101310000E43E178282901D16A6102E0482900D111
:101320002A610133072BE6D92E602388FF2B1ED9B3
:101330006E68002318E003F1080101228A40218829
:1013400032EA01010FD199000F278F4026EA0706E4
:1013500000FA01F10E43E178282900D16A61E178B1
:10136000482900D12A610133072BE4D96E60F8BD0A
:10137000000801406CCB000870B504460D461646C7
:101380002C4B98421CD003F58063984218D003F58B
:101390008063984214D003F58063984210D003F51F
:1013A000806398420CD003F58063984208D003F51F
:1013B0008063984204D04FF4C6711F48FFF74AFE7D
:1013C0006B1E9BB2012B28D9042D26D0082D24D0CA
:1013D000102D22D0202D20D0402D1ED0802D1CD0AD
:1013E000B5F5807F19D0B5F5007F16D0B5F5806FC3
:1013F00013D0B5F5006F10D0B5F5805F0DD0B5F501
:10140000005F0AD0B5F5804F07D0B5F5004F04D086
:1014100040F28D110848FFF71DFE012E04D94FF44C
:10142000C7710548FFF716FE0EB1256170BD6561F5
:1014300070BD00BF000801406CCB000838B5044601
:101440000D46114B98421CD003F58063984218D08A
:1014500003F58063984214D003F58063984210D05E
:1014600003F5806398420CD003F58063984208D05E
:1014700003F58063984204D040F2A3110348FFF7BC
:10148000E9FDE56038BD00BF000801406CCB0008F5
:1014900038B505460C46012803D9D0210D48FFF781
:1014A000D9FD631EDBB2012B03D9D1210948FFF717
:1014B000D1FD094B186820F0030028431860074A43
:1014C000136843F004031360012C01D130BF38BD11
:1014D00020BF38BD9CCB00080070004010ED00E03C
:1014E0000D4B1A6842F001021A6059680B4A0A4013
:1014F0005A601A6822F0847222F480321A601A68E4
:1015000022F480221A605A6822F4FE025A604FF4D4
:101510001F029A60704700BF001002400000FFF8F1
:1015200010B5044650B1B0F5803F07D0B0F5802F1C
:1015300004D040F211110F48FFF78CFD0E4B1A68D2
:1015400022F480321A601A6822F480221A60B4F5FC
:10155000803F03D0B4F5802F06D010BD064A136833
:1015600043F48033136010BD034A136843F4A0238F
:10157000136010BDCCCB00080010024038B50C46FB
:10158000054650B1B0F5803F07D0B0F5403F04D0DC
:1015900040F27F111D48FFF75DFD74B3B4F5802F55
:1015A0002BD0B4F5002F28D0B4F5402F25D0B4F5BA
:1015B000801F22D0B4F5A01F1FD0B4F5C01F1CD0CF
:1015C000B4F5E01F19D0B4F5001F16D0B4F5101F04
:1015D00013D0B4F5201F10D0B4F5301F0DD0B4F5E2
:1015E000401F0AD0B4F5501F07D0B4F5601F04D0D7
:1015F0004FF4C0710548FFF72DFD054A536823F4E9
:101600007C132C431C43546038BD00BFCCCB000876
:101610000010024010B50446012804D94FF4CA71E5
:101620000248FFF717FD024B1C6010BDCCCB000831
:101630006000424210B50446022804D94FF40D71EF
:101640000448FFF707FD044B586820F003002043CF
:10165000586010BDCCCB000800100240024B586807
:1016600000F00C00704700BF0010024010B50446A7
:10167000A0B1802812D0902810D0A0280ED0B02879
:101680000CD0C0280AD0D02808D0E02806D0F028F6
:1016900004D04FF418710548FFF7DCFC044B586880
:1016A00020F0F0002043586010BD00BFCCCB0008F4
:1016B0000010024010B5044680B1B0F5806F0DD027
:1016C000B0F5A06F0AD0B0F5C06F07D0B0F5E06FED
:1016D00004D040F27A210548FFF7BCFC044B58685F
:1016E00020F4E0602043586010BD00BFCCCB000860
:1016F0000010024010B5044680B1B0F5806F0DD0E7
:10170000B0F5A06F0AD0B0F5C06F07D0B0F5E06FAC
:1017100004D04FF425710548FFF79CFC044B586832
:1017200020F4605040EAC400586010BDCCCB0008E3
:101730000010024010B4294B5B6803F00C03042B2B
:1017400005D0082B06D013BB254B036021E0254BA9
:1017500003601EE0214A53685268C3F38343023397
:1017600012F4803F04D1204A02FB03F3036010E02F
:101770001A4A526812F4003F04D01C4A02FB03F3D9
:10178000036006E0174A02FB03F3036001E0144B19
:10179000036012494B68C3F30313154CE35CDAB2E0
:1017A0000368D34043604A68C2F30222A25CD2B20B
:1017B00023FA02F282604A68C2F3C222A25CD2B269
:1017C000D340C3604A68C2F381320A498A5CD2B20C
:1017D000B3FBF2F3036110BC704700BF001002407E
:1017E00000127A00001BB70000093D00808D5B00ED
:1017F000040000200000002038B504460D4620F407
:101800007F4323F0FD0303B920B940F237410B4871
:10181000FFF720FC012D04D94FF487610748FFF73B
:1018200019FC25B1064A93691C43946138BD044AEA
:10183000936923EA0404946138BD00BFCCCB00084F
:101840000010024038B504460D460E4B034003B964
:1018500020B940F255410C48FFF7FCFB012D04D99B
:1018600040F256410848FFF7F5FB25B1074AD36916
:101870001C43D46138BD054AD36923EA0404D4610A
:1018800038BD00BFC03701C1CCCB000800100240FA
:1018900038B504460D4620F47F4323F0FD0303B919
:1018A00020B940F28E410B48FFF7D4FB012D04D93B
:1018B00040F28F410748FFF7CDFB25B1064AD368B8
:1018C0001C43D46038BD044AD36823EA0404D460BE
:1018D00038BD00BFCCCB00080010024038B504462C
:1018E0000D460E4B034003B920B940F2AC410C4801
:1018F000FFF7B0FB012D04D940F2AD410848FFF7D6
:10190000A9FB25B1074A13691C43146138BD054A78
:10191000136923EA0404146138BD00BFC03701C154
:10192000CCCB00080010024010B50446212818D086
:10193000312816D0392814D0412812D0612810D06F
:101940007A280ED07B280CD07C280AD07D2808D09D
:101950007E2806D07F2804D040F21D510D48FFF7A5
:1019600079FB6309012B02D10B4B1B6806E0022BAC
:1019700002D1094B1B6A01E0074B5B6A04F01F04AC
:1019800023FA04F414F0010F01D0012010BD00204F
:1019900010BD00BFCCCB00080010024000B583B0E2
:1019A000002301933120FFF7BFFF019B0133019317
:1019B000019BB3F5A06F01D00028F3D03120FFF7D1
:1019C000B3FF08B1012000E0002003B05DF804FB84
:1019D0002DE9F04105460C46464B98420BD0A3F545
:1019E0007843984207D003F58063984203D0A22140
:1019F0004148FFF72FFB238863B1B3F5806F09D00F
:101A0000B3F5004F06D0B3F5404F03D0A5213A48B7
:101A1000FFF720FB6388B3F5827F04D01BB1A621BA
:101A20003548FFF717FBA388B3F5006F04D01BB14F
:101A3000A7213148FFF70EFBE3882BB1022B03D01F
:101A4000A8212D48FFF706FB2389012B03D9A921E3
:101A50002948FFF7FFFA6389B3F5007F04D01BB173
:101A6000AA212548FFF7F6FAA3898BB1082B0FD0DE
:101A7000102B0DD0182B0BD0202B09D0282B07D0E2
:101A8000302B05D0382B03D0AB211B48FFF7E2FAEF
:101A9000E3892BB1802B03D0AC211748FFF7DAFA8A
:101AA000238A1BB9AD211448FFF7D4FA2B8803F41D
:101AB000415720886688A188B4F806802289B4F846
:101AC0000AC0A389B4F80EE03043084348EA000195
:101AD00011434CEA01021A434EEA02033B432B80B6
:101AE000AB8B9BB223F400639BB2AB83238A2B8224
:101AF000BDE8F08100300140FCCB000838B5044659
:101B00000D46124B98420CD0A3F57843984208D06A
:101B100003F58063984204D040F2AD110C48FFF702
:101B200099FA012D04D94FF4D7710948FFF792FAB9
:101B30002DB123889BB243F04003238038BD238816
:101B40009BB223F040039BB2238038BD003001409C
:101B5000FCCB000838B504460D46094B98420CD022
:101B6000A3F57843984208D003F58063984204D0E7
:101B700040F225210348FFF76DFAA58138BD00BF6B
:101B800000300140FCCB000838B505460C46164B2A
:101B900098420CD0A3F57843984208D003F58063AF
:101BA000984204D040F201311048FFF753FA802CDC
:101BB00012D0402C10D0202C0ED0102C0CD0082C81
:101BC0000AD0042C08D0022C06D0012C04D040F2FC
:101BD00002310648FFF73EFA2B891C4201D0012052
:101BE00038BD002038BD00BF00300140FCCB0008EC
:101BF00010B50446424B98421ED0B0F1804F1BD026
:101C0000A3F59433984217D003F58063984213D01C
:101C100003F5806398420FD003F5806398420BD0A0
:101C200003F58063984207D003F59033984203D0C0
:101C3000BE213448FFF70EFA314B9C420AD10121F4
:101C40004FF40060FFF724FE00214FF40060FFF71F
:101C50001FFE10BDB4F1804F08D101210846FFF7E7
:101C60003DFE00210120FFF739FE10BD264B9C42AE
:101C700008D101210220FFF731FE00210220FFF7E9
:101C80002DFE10BD214B9C4208D101210420FFF7FD
:101C900025FE00210420FFF721FE10BD1C4B9C42B5
:101CA00008D101210820FFF719FE00210820FFF7C5
:101CB00015FE10BD174B9C4208D101211020FFF7E3
:101CC0000DFE00211020FFF709FE10BD124B9C42B3
:101CD00008D101212020FFF701FE00212020FFF77D
:101CE000FDFD10BD0D4B9C4209D101214FF4005068
:101CF000FFF7CEFD00214FF40050FFF7C9FD10BDE6
:101D0000002C01402CCC00080004004000080040DA
:101D1000000C00400010004000140040003401405E
:101D200038B504460D46274B984216D0B0F1804F87
:101D300013D0A3F5943398420FD003F580639842F3
:101D40000BD003F58063984207D003F59433984293
:101D500003D0F8211C48FFF77DF96B885BB1102B8D
:101D600009D0202B07D0402B05D0602B03D0F921C0
:101D70001548FFF76FF9EB884BB1B3F5807F06D0BC
:101D8000B3F5007F03D0FA210F48FFF763F92388EA
:101D900003F08F032380238899B2EB886A8813436A
:101DA0000B432380AB88A3852B882385054B9C425E
:101DB00003D003F500639C4201D12B7A23860123D3
:101DC000A38238BD002C01402CCC00084FF6FF73D5
:101DD000838000230380C38043800372704700BF69
:101DE00038B504460D461C4B98421FD0B0F1804FC9
:101DF0001CD0A3F59433984218D003F58063984221
:101E000014D003F58063984210D003F580639842A4
:101E10000CD003F58063984208D003F590339842C4
:101E200004D040F217310D48FFF714F9012D04D901
:101E30004FF446710948FFF70DF92DB123889BB285
:101E400043F00103238038BD238823F001039B0561
:101E50009B0D238038BD00BF002C01402CCC000816
:101E600070B504460D4616461F4B98421FD0B0F180
:101E7000804F1CD0A3F59433984218D003F58063AB
:101E8000984214D003F58063984210D003F5806324
:101E900098420CD003F58063984208D003F5903344
:101EA000984204D040F255311048FFF7D3F815F4AA
:101EB0007F4F00D125B940F256310C48FFF7CAF8E0
:101EC000012E04D940F257310848FFF7C3F826B174
:101ED000A3899BB21D43A58170BDA389ED43ADB21B
:101EE0001D40A58170BD00BF002C01402CCC000816
:101EF00038B504460D461C4B98421FD0B0F1804FB8
:101F00001CD0A3F59433984218D003F5806398420F
:101F100014D003F58063984210D003F58063984293
:101F20000CD003F58063984208D003F590339842B3
:101F300004D040F26D510D48FFF78CF8012D04D903
:101F400040F26E510948FFF785F82DB123889BB206
:101F500043F08003238038BD238823F080039B0552
:101F60009B0D238038BD00BF002C01402CCC000805
:101F700030B587B004460D46564B984213D0A3F5B2
:101F8000744398420FD003F5806398420BD003F559
:101F90008063984207D003F58063984203D0AD2157
:101FA0004D48FFF757F82B68013B4C4A934203D941
:101FB000AE214948FFF74EF8AB8833B1B3F5805FE7
:101FC00003D0AF214448FFF745F8EB8863B1B3F580
:101FD000805F09D0B3F5005F06D0B3F5405F03D052
:101FE000B0213D48FFF736F82B894BB1B3F5806F30
:101FF00006D0B3F5C06F03D0B1213748FFF72AF8F8
:102000006A8922F00C039BB203B91AB9B221324893
:10201000FFF720F8AB8963B1B3F5807F09D0B3F542
:10202000007F06D0B3F5407F03D0B3212A48FFF7E5
:1020300011F8AB8973B1274B9C420BD0A3F57443C5
:102040009C4207D003F580639C4203D0B72122480D
:10205000FFF700F8238A9BB2EA8823F44053134326
:102060002382A3899BB2AA88298968890A430243EB
:1020700023F4B05323F00C031343A381A38A9BB230
:10208000AA8923F440731343A38201A8FFF752FBEC
:10209000104B9C4201D1049A00E0039A02EB8202A9
:1020A00002EB82022B689B00B2FBF3F20C4BA3FB0A
:1020B0000210400900010109642505FB11221201EB
:1020C0003232A3FB0223C3F3431303439BB22381A6
:1020D00007B030BD003801405CCC00081FAA4400A6
:1020E0001F85EB5170B505460C46234B98420CD02A
:1020F000A3F57443984208D003F58063984204D056
:102100004FF489711D48FEF7A5FF23883BB1B3F555
:10211000006F04D040F213111848FEF79BFF63884C
:102120003BB1B3F5806F04D04FF48A711348FEF7CA
:1021300091FFA3883BB1B3F5007F04D040F21511A5
:102140000E48FEF787FFE3883BB1B3F5807F04D0EC
:102150004FF48B710948FEF77DFF2B8A9BB22688CE
:102160006188A288E08831430A43024323F4706304
:1021700013432B8270BD00BF003801405CCC0008C7
:1021800038B504460D46164B984214D0A3F5744357
:10219000984210D003F5806398420CD003F5806319
:1021A000984208D003F58063984204D04FF4A1719F
:1021B0000C48FEF74FFF012D04D940F243110948A6
:1021C000FEF748FF2DB1A3899BB243F40053A381CE
:1021D00038BDA3899BB223F400539BB2A38138BDC1
:1021E000003801405CCC000870B504460D46164628
:1021F000364B984214D0A3F57443984210D003F59F
:10220000806398420CD003F58063984208D003F5B0
:102210008063984204D040F269112D48FEF71AFFFE
:10222000282D1ED040F227739D421AD040F226631B
:102230009D4216D040F225539D4212D040F22443D5
:102240009D420ED040F646039D420AD040F66A13E6
:102250009D4206D0602D04D04FF4B5711C48FEF7A6
:10226000F9FE012E04D940F26B111948FEF7F2FE77
:1022700040F66A139D420FD1144B9C420CD0A3F53B
:1022800074439C4208D003F580639C4204D040F222
:102290006F110F48FEF7DEFEC5F3421205F01F0571
:1022A000012303FA05F59A4201D10C3404E0022A15
:1022B00001D1103400E014341EB123681D432560A1
:1022C00070BD236823EA0505256070BD0038014014
:1022D0005CCC000838B504460D46124B984214D029
:1022E000A3F57443984210D003F5806398420CD054
:1022F00003F58063984208D003F58063984204D0C8
:1023000040F232210848FEF7A5FEB5F5007F04D360
:1023100040F233210448FEF79DFEC5F30805A58071
:1023200038BD00BF003801405CCC000838B5054618
:102330000C46264B984214D0A3F57443984210D013
:1023400003F5806398420CD003F58063984208D06F
:1023500003F58063984204D040F213311C48FEF725
:1023600079FE012C18D0802C16D0402C14D0202CB3
:1023700012D0102C10D0B4F5807F0DD0B4F5007FB2
:102380000AD0082C08D0042C06D0022C04D04FF41C
:1023900045710F48FEF75EFEB4F5007F0FD10B4B81
:1023A0009D420CD0A3F574439D4208D003F5806391
:1023B0009D4204D04FF446710548FEF74BFE2B8832
:1023C0001C4201D0012038BD002038BD003801403A
:1023D0005CCC000808B520B9064B1B6801221A82A4
:1023E00008BD054B1B681B689847024B18680A30EC
:1023F00008BD00BFEC480020E848002008B520B91F
:10240000064B1B6801221A8208BD054B1B689B689E
:102410009847024B18680C3008BD00BFEC480020FC
:10242000E848002008B520B9294B1B6802221A820F
:1024300008BD0022274B1A80254B1A68137813F029
:102440007F0315D1537A13F0200F02D00221214AC5
:10245000117013F0400F05D01E4A137823F00103CA
:1024600013702BE01B4A137843F00103137025E02F
:10247000012B29D0022B29D1527902F00F0312F03F
:10248000800F0DD09B0003F1804303F5B8431B6818
:1024900003F03003102B11D101220E4B1A700DE006
:1024A0009B0003F1804303F5B8431B6803F44053DA
:1024B000B3F5805F02D10122064B1A70064B1B68F0
:1024C0001B699847034808BD024808BD002008BDA5
:1024D000EC480020BC480020E8480020F8B5254B17
:1024E0001D682C8A2B7ACCB9042B17D1224B1B7870
:1024F000012B0ED1214B1A6892B2214B13445B0081
:1025000000221A6030211F4B19801B4B1A700426C1
:102510002BE010221B4B1A80072626E0AB8A9C4238
:1025200001D8042600E002269C4200D31C46AB6979
:10253000A4B2204698470746002000F095FE2246A8
:102540000146384600F0AAFD2146002000F0A8FE12
:102550002B8A1B1B2B826B8A1C446C823022094BFA
:102560001A804FF44052084B1A80024B1B681E72AF
:10257000F8BD00BFEC480020FC020020505C004089
:1025800002300020F4480020F248002010B582B04C
:102590007C4B1A685378062B16D1137813F07F0FF3
:1025A00078D19378012B03D1774B1B68DB6990E0DE
:1025B000022B03D1744B1B681B6A8AE0032B6BD17F
:1025C000714B1B685B6A84E0002B41D15188002964
:1025D0003ED1516821F47F41B1F5003F38D11378E5
:1025E00013F07F0302D19188002957D0012B0DD120
:1025F000654B1B689B6900215079984700284FD193
:10260000604B1B689B7A002B4CD162E0022B4BD1B4
:10261000537903F00F0203F0700013F0800F08D01D
:10262000930003F1804303F5B8431B6803F03003C4
:1026300007E0930003F1804303F5B8431B6803F4FC
:102640004053524909788A4230D288BB93BB40E05C
:10265000082B05D1137813F07F0F2DD0002338E01D
:102660000A2B2BD1137803F07F03012B28D1937A07
:1026700043B3538843BB536823F47F43B3F5803F90
:1026800024D1414B1B689B69002150799847F8B1D0
:1026900000231EE000231CE000231AE03C4B18E05E
:1026A000002316E03A4B14E0002312E0002310E070
:1026B00000230EE0364B0CE0364B0AE0002308E026
:1026C000002306E0002304E0002302E0002300E0F2
:1026D000314B43B12B4A1268002454829361204647
:1026E000984720460DE0284B1B681B69254A126855
:1026F00050789847032804D1224B1B6809221A728C
:102700003EE0204B1B681A8A4FF6FF718A4202D1C5
:1027100009221A7234E0022800D012B908221A7273
:102720002EE093F90010002924DAD988019101984C
:10273000824202D9019A1A8214E08A4212D21249C4
:10274000096891F82C1088B2824203D20021134A02
:10275000117007E092FBF1F001FB102212B9012188
:102760000E4A1170084A126892F82C209A82FFF7DC
:10277000B5FE05E003221A724FF44052084B1A804E
:1027800002B010BDEC480020C4480020D800002052
:1027900025240008D5230008FD230008FC020020A2
:1027A000F248002070B5244B1C68228AA369B3B19B
:1027B000AAB1A18A8A4200D30A4695B22846984710
:1027C0000646238A5B1B2382638A2B446382002094
:1027D00000F058FD2A460146304600F075FC238A79
:1027E00053B14FF44052154B1A800021084600F0B7
:1027F00057FD3022124B1A80238AA28A934204D3B7
:102800000D4B1B6803221A7270BD23B10A4B1B6863
:1028100005221A7270BD73B9074B1B6806221A7223
:10282000084B1A6892B2084B13445B0000221A60EE
:102830003022034B1A8070BDEC480020F248002083
:10284000F4480020505C00400230002008B50C4BDA
:102850001B68DA780B4949788A420AD8997851B9C5
:10286000998851B99A72084B1B685B689847002099
:1028700008BD022008BD022008BD022008BD00BF1F
:10288000EC480020D8000020E848002010B5134B89
:102890001B689A69124C2368D97858799047236845
:1028A0009A7A82B188B91A798AB99B788BB990B92A
:1028B0000C4B1B68DB68984723685A79DA72DA7820
:1028C0001A73002010BD022010BD022010BD02208E
:1028D00010BD022010BD022010BD00BFC448002062
:1028E000EC480020E8480020414B1A68137813F0A8
:1028F0007F0305D1537A23F02003537200207047E1
:10290000022B68D15388002B67D11379002B66D135
:1029100010B5517921F0800011F0800F08D08300AC
:1029200003F1804303F5B8431B6803F0300307E06D
:10293000830003F1804303F5B8431B6803F440535D
:102940002C4C2478A0424CD2002B4CD0937A002BF4
:102950004BD011F0800F12D0830003F1804303F5B8
:10296000B8431B6803F03003102B2ED1C4B22046AD
:1029700000F046FC3021204600F0CCFB25E084002E
:1029800004F1804404F5B844236803F44053B3F5DC
:10299000805F1AD170B9184B93F82C1000F08EFCA0
:1029A00023689BB223F4804323F0700383F44053E5
:1029B00023600AE000F010FC23689BB223F48043FC
:1029C00023F0700383F4405323600C4B1B685B6956
:1029D0009847002010BD0220704702207047022057
:1029E0007047022010BD022010BD022010BD00BFA4
:1029F000EC480020D800002070000020E8480020AB
:102A000010B5284B1868417921F0800211F0800F31
:102A100008D0930003F1804303F5B8431B6803F02B
:102A2000300307E0930003F1804303F5B8431B68CC
:102A300003F440531C4C2478A2422AD2448854BB4D
:102A40005BB3837A5BB311F0800F0ED0930003F178
:102A5000804303F5B8431A6892B222F4E04222F0B0
:102A6000400282F010021A600DE0930003F18043EF
:102A700003F5B8431A6892B222F4804222F0700241
:102A800082F480521A60094B1B689B6998470020AA
:102A900010BD022010BD022010BD022010BD02207A
:102AA00010BD00BFEC480020D8000020E8480020FE
:102AB00008B5064B1A68537A43F020035372044B4F
:102AC0001B68DB699847002008BD00BFEC48002068
:102AD000E848002010B5424B1A685478137813F078
:102AE0007F0331D1092C02D1FFF7B0FE52E0052C53
:102AF0000ED192F90330002B62DB9378002B61D169
:102B00009388002B60D1937A002B5FD1002041E0A5
:102B1000032C0BD1D378012B29D193884BBB537A4B
:102B200013F0200F27D0FFF7C3FF33E0012C24D18F
:102B3000D378012B23D193881BBB537A13F0200F3A
:102B400021D0FFF7D1FE25E0012B04D10B2C1CD1A5
:102B5000FFF79CFE1EE0022B19D1012C02D1FFF7DA
:102B6000C3FE17E0032C14D1FFF74AFF12E0022046
:102B700010E002200EE002200CE002200AE0022019
:102B800008E0022006E0022004E0022002E0022029
:102B900000E0022030B1134B1B685B692046984768
:102BA000032815D0B0B9104B1A6892B20F4B1344DA
:102BB0005B0000221A6030220D4B1A8006220AE0C8
:102BC000082208E0082206E0082204E0082202E0C9
:102BD000092200E00822024B1B681A7210BD00BFD8
:102BE000EC480020C4480020505C00400230002027
:102BF000F4480020054B1A68538A20B98888C31A04
:102C0000138200207047086818447047EC48002081
:102C100008B50B4B93F82C10002000F04FFB094B2C
:102C20001B68187A082806D14FF48052064B1A8088
:102C30001022064B1A80092814BF0020012008BD6D
:102C400070000020EC480020F2480020F4480020EA
:102C500070B51B4B1A6892B21A4B13445B001B8869
:102C6000194A1268117A09291BD05B0003F18043CD
:102C700003F5C0435D1C19781170134C22685B7812
:102C800053702668B5F8030000F03AFB70802668A0
:102C9000B5F8070000F034FBB0802368B5F80B20CE
:102CA000DA80094B1B6801221A72DB8813B9FFF71F
:102CB00011FF01E0FFF76AFCFFF7AAFF70BD00BF3C
:102CC000505C004004300020EC48002008B50E4B5A
:102CD0001B681B7A032B01D0052B05D1FFF762FD82
:102CE000094B1B681A7A08E0072B05D1074B1B68B4
:102CF000DB689847082200E00822034B1B681A7221
:102D0000FFF786FF08BD00BFEC480020C448002044
:102D100030B40E4B1D7800210FE0CCB2A30003F1BC
:102D2000804303F5B8431A6822F4E04222F07002AF
:102D30001204120C22431A600131A942EDD340F073
:102D40008000034B186030BC704700BFD8000020E3
:102D50004C5C004008B5154B1A68137A022B01D061
:102D6000042B05D1FFF7BAFB104B1B681A7A16E04B
:102D7000062B13D15378052B0AD1137813F07F0F4C
:102D800006D1D078FFF7C4FF094B1B681B6A984730
:102D9000084B1B689B689847082200E00822034BF9
:102DA0001B681A72FFF734FF08BD00BFEC48002013
:102DB000E8480020C4480020704700BF10B559E122
:102DC00047F6FF728E4B1A608E4B1B8803F00F0381
:102DD0008D4A1370002B40F01F818C4A136803F456
:102DE00040538B490B80136803F0300389490B80F3
:102DF00013689BB223F4804323F0700383F40053E1
:102E0000136013689BB223F4E04323F0400383F084
:102E1000200313607B4B1B8803F010039BB2002B35
:102E200039D11446136823F4E14323F070031B04E3
:102E30001B0C1360FFF78EFF23689BB223F48043C3
:102E400023F070039BB2724A128802F4805189B257
:102E500009B183F4805302F4005292B20AB183F4B0
:102E600000536A4A136013689BB223F4E04323F0D3
:102E700040039BB2674A128802F0100189B209B17F
:102E800083F0100302F0200292B20AB183F0200313
:102E90005E4A136010BD5D4B1B6813F0800F39D084
:102EA0005A4C236823F4E14323F070031B041B0CEA
:102EB0002360FFF74FFF23689BB223F4804323F086
:102EC00070039BB2524A128802F4805189B209B150
:102ED00083F4805302F4005292B20AB183F4005397
:102EE0004A4A136013689BB223F4E04323F0400383
:102EF0009BB2484A128802F0100189B209B183F0EE
:102F0000100302F0200292B20AB183F020033F4A7C
:102F1000136010BD13F4006F37D03C4C236823F0CE
:102F200070031B051B0D2360FFF792FE23689BB205
:102F300023F4804323F070039BB2354A128802F4D5
:102F4000805189B209B183F4805302F4005292B2E5
:102F50000AB183F400532D4A136013689BB223F423
:102F6000E04323F040039BB22A4A128802F010018A
:102F700089B209B183F0100302F0200292B20AB1C3
:102F800083F02003214A136010BD13F4004F71D069
:102F90001E4C236823F070031B051B0D2360FFF7F5
:102FA00095FE23689BB223F4804323F070039BB209
:102FB000174A128802F4805189B209B183F4805310
:102FC00002F4005292B20AB183F400530F4A136024
:102FD00013689BB223F4E04323F040039BB20D4AF5
:102FE000128802F0100189B209B183F0100302F0D7
:102FF000200292B20AB183F02003044A136010BD8C
:10300000445C0040FA480020C8480020005C0040B2
:10301000F2480020F44800209B0003F1804303F5B0
:10302000B8431C6814F4004F0CD01A6822F07002E8
:103030001205120D1A60144B1B78013B134A52F80B
:103040002330984714F0800F14D00F490B789B0061
:1030500003F1804303F5B8431A6822F4E14222F0F9
:1030600070021204120C1A600B78013B084A52F8E5
:1030700023309847074B1B6899B2074A118013F415
:10308000004F7FF49DAE10BDC84800204C000020CA
:1030900030000020445C0040FA48002010B40132A7
:1030A000521001F1005101F54051490007E0037849
:1030B000447843EA042321F8043B0230013A002A11
:1030C000F5D110BC704700BF0132521001F1005120
:1030D00001F54051490004E00B6820F8023B013A39
:1030E0000431002AF8D1704720F0070080B2014B6C
:1030F00018607047505C0040800000F1804000F58F
:10310000B840036823F4EC4323F07003194389B2F9
:1031100001607047800000F1804000F5B84003680E
:103120009BB223F4E04323F040039BB201F0100272
:1031300092B20AB183F0100301F0200189B209B103
:1031400083F0200303607047800000F1804000F5A9
:10315000B84003689BB223F4804323F070039BB212
:1031600001F4805292B20AB183F4805301F4005109
:1031700089B209B183F4005303607047800000F105
:10318000804000F5B84003689BB223F4E04323F08D
:10319000400383F030030360704700BF800000F1FC
:1031A000804000F5B84003689BB223F4804323F0CD
:1031B000700383F440530360704700BF800000F148
:1031C000804000F5B840036823F4E24323F0700325
:1031D0001B041B0C03607047800000F1804000F569
:1031E000B840036813F4804F09D0036823F4E04328
:1031F00023F070031B041B0C43F4804303607047EF
:10320000800000F1804000F5B840036813F0400FE3
:1032100009D0036823F4E04323F070031B041B0C64
:1032200043F0400303607047064B1B689BB203EBFF
:10323000C00000F1005000F540504000490849002E
:1032400001607047505C0040054B1B689BB203EB6C
:10325000C000044B03445B004908490019607047F3
:10326000505C004004300020054B1B689BB203EB10
:10327000C00000F1005000F5405040000088704749
:10328000505C0040044B1B689BB203EBC000034B37
:1032900003445B0018887047505C004004300020F5
:1032A000044B1B689BB203EBC000034B03445B0061
:1032B00019607047505C0040023000200E4B1B68C4
:1032C0009BB203EBC0000D4B03445B003E290AD9BF
:1032D0004A0911F01F0F01D1013A92B2920242F451
:1032E00000421A6070474A0811F0010F00D0013205
:1032F00092021A60704700BF505C00400630002008
:10330000C3B2000A40EA0320704700BF08B5024874
:10331000FDF798FE08BD00BFD4CD000810B51948D0
:10332000FDF790FE184C02224FF482712046FFF701
:10333000CBFE63780BB9012200E00022124B1B7810
:10334000022B09D0032B0CD0012B10D14FF40071AC
:103350000E48FEF711F80FE020210C48FEF70CF89C
:103360000AE04FF480710948FEF706F804E04FF6D2
:10337000DF410648FEF762F84FF440510120FFF7A5
:10338000E3FE10BDC0CD0008F8480020000C01404D
:1033900008B5384B1B689BB2374A13801388374AED
:1033A000128803F480631A4206D04FF6FF32314B85
:1033B0001A60334B5B6898472F4B1B882F4A128843
:1033C00003F400531A4203D04DF6FF72294B1A60E2
:1033D000294B1B88294A128803F480531A4206D0CD
:1033E0004EF6FF72234B1A60002000F09FF9224B2B
:1033F0001B88224A128803F400631A420ED0214B24
:103400001B7813F0FF0F02D000F06EF902E00220EB
:1034100000F08CF94FF2FF72164B1A60164B1B88A6
:10342000164A128803F400731A4208D04FF6FF526E
:10343000104B1A60144A13780133DBB213700E4B31
:103440001B880E4A128803F480731A4206D04FF686
:10345000FF62084B1A60072000F068F9064B1B88D2
:10346000064A128803F400431A4201D0FFF7A6FC73
:1034700008BD00BF445C0040FA480020F04800202E
:1034800070000020DA000020FD020020704700BF1D
:10349000704700BF06280FD1174B1A68137803F046
:1034A0007F03012B08D1537933B99378222B0ED0A7
:1034B000212B0ED0002311E00F4B1B681B7803F06B
:1034C0007F03212B07D1032807D0002306E00B4BF5
:1034D00004E00B4B02E0002300E00A4B4BB110B5B7
:1034E000054A12689361002454822046984720467A
:1034F00010BD0220704700BFEC4800206136000874
:10350000713600081935000811B918B1022070474A
:10351000022070470020704720B9034B1B6801222E
:103520001A82704701487047EC480020FC48002090
:1035300010B5FDF753FD084B1B6800249C7200F08A
:10354000BFF8064B1C604FF43F43054A1380054A01
:103550001360054B1C6010BDEC480020445C00402B
:10356000F0480020405C00400003002010B5274BCD
:103570001B6800249C72DC72254AD2795A7220465C
:10358000FFF7B2FD4FF400712046FFF7B5FD1021A3
:103590002046FFF7BFFD18212046FFF755FE5821B2
:1035A0002046FFF741FE2046FFF708FE194B93F82F
:1035B0002C102046FFF782FE2046FFF7EFFD4FF468
:1035C000C0610120FFF798FD4FF480710120FFF7E3
:1035D0002BFE4FF482710120FFF736FE02210120FD
:1035E000FFF75EFE02210120FFF768FE4FF4405115
:1035F0000120FFF7A9FD20210120FFF78BFD01220B
:10360000054B1A602046FFF783FB10BDEC480020F5
:1036100090CD0008700000200003002008B502498A
:10362000FFF7E8FA08BD00BFA800002008B502496E
:10363000FFF7E0FA08BD00BF6800002008B5064BA0
:103640001B68DB78042B05D8044901EBC301FFF7A5
:10365000D1FA08BD002008BDEC480020B0000020D1
:1036600008B50249FFF7C6FA08BD00BFA000002058
:1036700008B50249FFF7BEFA08BD00BFD000002020
:10368000034B1B68DA78034B1A600020704700BFB9
:10369000EC480020FC48002008B5084B1B681B784C
:1036A00003F07F03212B04D10B2804D1FFF7E8FF9F
:1036B00008BD022008BD022008BD00BFEC48002064
:1036C000064B01221A6000201860054A10604FF472
:1036D000E05204490A801A60704700BF405C004015
:1036E000445C0040F048002008B5074A13689BB2CC
:1036F00043F00803136013689BB243F004031360A4
:10370000FDF73AFC08BD00BF405C004010B5064C18
:1037100023689BB223F004039BB22360FDF738FCBF
:103720004FF43F43236010BD405C004008B50728BC
:1037300001D0274B1870264B1B78DBB2052B43D8E2
:10374000DFE803F003090F15222EFFF7DFFF062243
:103750001F4B1A7008BDFFF7D9FF04221C4B1A70CB
:1037600008BD1B4B02225A7003221A7008BD184A6A
:103770005378013BDBB25370537813F0FF0F26D11F
:103780000422134B1A7008BD124A13689BB243F00F
:10379000100313600E4B05221A700A225A7008BDDE
:1037A0000B4A5378013BDBB25370537813F0FF0F91
:1037B0000DD1084A13689BB223F010039BB213602B
:1037C0000622034B1A7008BD0622014B1A7008BD71
:1037D00000490020405C004082B0002301934FF07C
:1037E000BF0383F31188BFF36F8FBFF34F8F019B2C
:1037F000002BFCD002B0704706480068006880F3D8
:10380000088862B661B6BFF34F8FBFF36F8F00DFDA
:1038100000BF000008ED00E04FF0807340F8043C6A
:1038200021F0010140F8081C034B40F80C3C40F823
:10383000202C4038704700BFD93700084FF0BF0335
:1038400083F31188BFF36F8FBFF34F8F024A136862
:1038500001331360704700BFDC000020034A136887
:10386000013B13600BB983F311887047DC00002023
:10387000054B00221A6005490A600549054A116096
:1038800007221A60704700BF10E000E018E000E077
:103890003F19010014E000E010B50B4B1A6842F428
:1038A0007F021A601A6842F07F421A60FFF7E0FF59
:1038B0000024064B1C60FFF79FFF00F0FFFEFFF7A0
:1038C0008BFF204610BD00BF20ED00E0DC00002093
:1038D00000F1080343604FF0FF328260C360036170
:1038E00000230360704700BF00230361704700BFDF
:1038F00043684B609A688A609A6851609960086171
:10390000036801330360704730B40D68B5F1FF3FC1
:1039100001D1026907E000F1080200E01A4653688D
:103920001C68A542FAD253684B6099608A60516066
:10393000086103680133036030BC70470369426863
:10394000816891608268416851605A68904201D1F3
:1039500082685A60002202611A68013A1A60186887
:10396000704700BF10B50446FFF768FFA26BE36B1A
:103970009A4201D1012400E00024FFF76FFF2046A6
:1039800010BD00BF10B50446FFF758FFA36B0BB97D
:10399000012400E00024FFF761FF204610BD00BFB6
:1039A00070B504461646856B026CFAB166B940687C
:1039B00002F08CFA6268236C13446360A26893423D
:1039C00014D32368636011E0C06802F07FFA236CAF
:1039D0005B42E2681A44E26021688A4202D2A2682D
:1039E0001344E360022E01D105B1013D0135A56309
:1039F000002070BD026C72B110B5C3681344C3607F
:103A00008468A34201D30368C3600C46C1682046A2
:103A100002F05CFA10BD704738B50546FFF70EFF9F
:103A200095F8454064B20AE06B6A53B105F1240091
:103A300000F0F2FE08B100F063FF013C64B2002C1C
:103A4000F2DCFF2385F84530FFF708FFFFF7F6FEAD
:103A500095F8444064B20AE02B6953B105F11000B7
:103A600000F0DAFE08B100F04BFF013C64B2002C1C
:103A7000F2DCFF2385F84430FFF7F0FE38BD00BFCD
:103A800038B504460D46FFF7D9FE2168E26B236C7A
:103A900003FB0210A0600020A0636160013A02FBFA
:103AA0000313E360FF2384F8443084F845307DB984
:103AB0002369ABB104F1100000F0AEFE80B14FF00D
:103AC0008052094B1A60BFF34F8FBFF36F8F07E02F
:103AD00004F11000FFF7FCFE04F12400FFF7F8FEEC
:103AE000FFF7BCFE012038BD04ED00E010B5029BDD
:103AF0000C4609B91B6000E01A60D8631C64012100
:103B00001846FFF7BDFF10BDF0B583B00546174658
:103B10000E4611B100FB01F000E00020483002F039
:103B200049F8044638B100903B4600F1480231465E
:103B30002846FFF7DBFF204603B0F0BDF0B585B0A7
:103B400004460F4601921E460025FFF777FEA26B42
:103B5000E36B9A4201D3022E21D1324639462046E8
:103B6000FFF71EFF636A6BB104F1240000F054FEFE
:103B700088B14FF08052324B1A60BFF34F8FBFF3C2
:103B80006F8F08E038B14FF080522D4B1A60BFF3B1
:103B90004F8FBFF36F8FFFF761FE01204EE0019B57
:103BA0001BB9FFF75BFE002048E01DB902A800F03A
:103BB0006FFE0125FFF752FE00F02CFCFFF73EFEE2
:103BC00094F844305BB2B3F1FF3F02D1002384F894
:103BD000443094F845305BB2B3F1FF3F02D100238B
:103BE00084F84530FFF73AFE01A902A800F05CFE18
:103BF000F0B92046FFF7B6FEA0B1019904F110001C
:103C000000F0FCFD2046FFF707FF00F099FC0028BC
:103C10009BD14FF080520A4B1A60BFF34F8FBFF316
:103C20006F8F92E72046FFF7F7FE00F089FC8CE7E4
:103C30002046FFF7F1FE00F083FC002005B0F0BD48
:103C400004ED00E0F0B585B004460F460192002671
:103C5000FFF7F4FDA56BC5B139462046FFF7CAFE54
:103C6000013DA563236963B104F1100000F0D4FDA8
:103C700038B14FF08052304B1A60BFF34F8FBFF313
:103C80006F8FFFF7EBFD012053E0019B1BB9FFF79E
:103C9000E5FD00204DE01EB902A800F0F9FD012667
:103CA000FFF7DCFD00F0B6FBFFF7C8FD94F84430E9
:103CB0005BB2B3F1FF3F02D1002384F8443094F8A3
:103CC00045305BB2B3F1FF3F02D1002384F84530A9
:103CD000FFF7C4FD01A902A800F0E6FDF0B92046F7
:103CE000FFF750FEA0B1019904F1240000F086FD19
:103CF0002046FFF791FE00F023FC0028A8D14FF0EA
:103D000080520D4B1A60BFF34F8FBFF36F8F9FE749
:103D10002046FFF781FE00F013FC99E72046FFF7ED
:103D20007BFE00F00DFC2046FFF72CFE00288FD014
:103D3000002005B0F0BD00BF04ED00E030B585B057
:103D4000044601910025FFF779FDA36BA3B1013B68
:103D5000A363236963B104F1100000F05DFD38B185
:103D60004FF080522F4B1A60BFF34F8FBFF36F8F0E
:103D7000FFF774FD012053E0019B1BB9FFF76EFDB7
:103D800000204DE01DB902A800F082FD0125FFF7DB
:103D900065FD00F03FFBFFF751FD94F844305BB246
:103DA000B3F1FF3F02D1002384F8443094F845304A
:103DB0005BB2B3F1FF3F02D1002384F84530FFF737
:103DC0004DFD01A902A800F06FFDF0B92046FFF7F4
:103DD000D9FDA0B1019904F1240000F00FFD2046A7
:103DE000FFF71AFE00F0ACFB0028ACD14FF0805278
:103DF0000C4B1A60BFF34F8FBFF36F8FA3E72046C2
:103E0000FFF70AFE00F09CFB9DE72046FFF704FE4B
:103E100000F096FB2046FFF7B5FD002893D0002068
:103E200005B030BD04ED00E010B50446FFF706FD17
:103E3000A46BFFF713FD204610BD00BF4269084B7D
:103E40009A4206D1836A074A934204D02BB10020DC
:103E5000704700207047002070470120704700BF66
:103E6000EC030020A0030020084B1B681B6823B94B
:103E70004FF0FF32064B1A607047044B1B68DB683B
:103E8000DB685A68024B1A60704700BF08030020C5
:103E9000BC03002010B50446006B01F0DDFE204697
:103EA00001F0DAFE10BD00BF2DE9F84380469946C7
:103EB000089D099F0A9C236B02F18042013A03EBA3
:103EC000820626F00706002306E0C85CE21882F8A6
:103ED0003400CA5C12B101330F2BF6D9002384F8E9
:103EE0004330042D00D90425E562201DFFF7FCFCBA
:103EF00004F11800FFF7F8FC2461C5F10505A56180
:103F000064620023636484F848304A464146304680
:103F1000FFF782FC206007B13C60BDE8F88300BF7A
:103F200038B5002407E004EB840293000E481844DF
:103F3000FFF7CEFC0134042CF5D90C4D2846FFF7D1
:103F4000C7FC0B4C2046FFF7C3FC0A48FFF7C0FC38
:103F50000948FFF7BDFC0948FFF7BAFC084B1D6094
:103F6000084B1C6038BD00BF2C030020C403002098
:103F7000D8030020A003002010030020EC03002041
:103F8000080300202403002010B50446FFF756FC68
:103F9000204A1368013313601F4B1B683BB91E4B4B
:103FA0001C601368012B0DD1FFF7BAFF0AE01B4B11
:103FB0001B683BB9184B1B68DA6AE36A9A4201D85E
:103FC000154B1C60164A136801331360E36A012223
:103FD00002FA03F1134802680A43026003EB830309
:103FE0009A00211D10481044FFF782FCFFF736FCB1
:103FF0000A4B1B686BB1084B1B68DA6AE36A9A428A
:1040000007D24FF08052094B1A60BFF34F8FBFF3B6
:104010006F8F10BD980300209C0300200C0300202C
:10402000C0030020000400202C03002004ED00E069
:1040300010B514E0FFF702FC0B4BDB68DC68201DB9
:10404000FFF77CFC094A1368013B1360084A1368B8
:10405000013B1360FFF702FC2046FFF71BFF044BF8
:104060001B68002BE6D110BD100300209803002030
:104070009403002008B5FFF7DBFF064B1B68012BFC
:10408000F9D94FF08052044B1A60BFF34F8FBFF342
:104090006F8FF0E72C03002004ED00E070B50446BC
:1040A0000E461D4B1D681D4B18680430FFF746FC7B
:1040B00050B91A4B1B68DA6A012303FA02F2184955
:1040C0000B6823EA02030B60B4F1FF3F07D136B15E
:1040D000124B196804311348FFF70AFC70BD2C44D9
:1040E0000E4B1B685C60A54207D90F4B18680B4B41
:1040F00019680431FFF708FC70BD0C4B1868074BBA
:1041000019680431FFF700FC094B1B689C4201D27F
:10411000074B1C6070BD00BFB80300209C0300204B
:1041200000040020EC0300202403002008030020EA
:10413000BC0300202DE9F04385B006460F46154626
:104140009846900001F036FD60B181464C2001F0A8
:1041500031FD044610B1C0F8309004E0484601F04B
:104160007BFD00E000248CB10023039302940D9B9F
:1041700001930C9B009343462A4639463046FFF78D
:1041800093FE2046FFF700FF012001E04FF0FF30D3
:1041900005B0BDE8F08300BF38B50446FFF74EFB1D
:1041A0000CB9244B1C68251D2846FFF7C7FB70B9C6
:1041B000E36A03EB83018A001F498A583AB9012256
:1041C00002FA03F31D490A6822EA03030B60A36A9B
:1041D0001BB104F11800FFF7B1FB194A1368013352
:1041E0001360144B1B689C4208D129461548FFF701
:1041F0007FFB154A13680133136008E0134A136804
:10420000013B13602046FFF745FEFFF72DFEFFF749
:1042100025FB0F4B1B685BB1064B1B689C4207D10B
:104220004FF080520B4B1A60BFF34F8FBFF36F8F6D
:1042300038BD00BF9C0300202C0300200004002098
:10424000C0030020100300209403002098030020E6
:104250000C03002004ED00E010B50446FFF7EEFA71
:104260000CB9034B1C68E46AFFF7F8FA204610BD4E
:104270009C030020F8B505460C46042900D9042407
:10428000FFF7DCFA0DB92A4B1D68EE6AB4424BD039
:104290000AD9274B1B689D420CD0254B1B68DB6A53
:1042A0009C4209D200270AE0214B1B689D4205D0A1
:1042B000002704E0002702E0012700E00127EC626C
:1042C000AB69002B02DBC4F10504AC61696906EB44
:1042D00086029300174A134499421CD12C1D204694
:1042E000FFF72CFB38B9012303FA06F6124A1368CC
:1042F00023EA06061660EB6A012202FA03F10E4871
:1043000002680A43026003EB83039A0021460948CE
:104310001044FFF7EDFA3FB14FF08052074B1A609F
:10432000BFF34F8FBFF36F8FFFF798FAF8BD00BF51
:104330009C0300202C0300200004002004ED00E07A
:1043400038B5184B1B6898422BD050B30446FFF782
:1043500075FA2046FFF772FD08B3251D2846FFF7C2
:10436000EDFAE36A012202FA03F10F4802680A43F8
:10437000026003EB83039A0029460C481044FFF7C0
:10438000B7FAE26A074B1B68DB6A9A4207D34FF021
:104390008052074B1A60BFF34F8FBFF36F8FFFF749
:1043A0005DFA38BD9C030020000400202C0300208F
:1043B00004ED00E000B583B0104B0193002300939F
:1043C00080220F490F48FFF7B5FE012813D14FF0A7
:1043D000BF0383F31188BFF36F8FBFF34F8F4FF08D
:1043E000FF32094B1A600122084B1A600022084B69
:1043F0001A60FFF751FA03B05DF804FBB403002024
:10440000E4CD000875400008BC0300200C03002028
:10441000B8030020024A136801331360704700BFDD
:1044200090030020014B1868704700BFB8030020BC
:10443000014B1868704700BF98030020F8B5354B52
:104440001B68002B58D1344B1E6801361E605EB9C4
:10445000324A1168324B186810601960314A13688B
:1044600001331360FFF700FD2F4B1B689E4203D200
:10447000002736E0012700E00027284B1B681B6857
:1044800023B94FF0FF32284B1A602AE0234B1B68F8
:10449000DB68DC6863689E4202D2234A136020E036
:1044A000251D2846FFF74AFAA36A1BB104F118003C
:1044B000FFF744FAE36A012202FA03F11B4802689B
:1044C0000A43026003EB83039A002946184810440C
:1044D000FFF70EFAE26A174B1B68DB6A9A42C9D2F1
:1044E000CBE7144B1B68DB6A03EB83039A00104B8A
:1044F0009B58012B06D806E00F4A1368013313605E
:10450000002700E001270D4B1B6803B10127384647
:10451000F8BD00BF90030020B8030020080300206E
:104520002403002004030020BC030020000400201A
:104530002C0300209C0300202803002004040020FA
:1045400038B5FFF77BF92D4B1A68013A1A601B68E2
:10455000002B4CD12A4B1B6833BB00244AE0294B6B
:10456000DB68DC6804F11800FFF7E8F9251D284630
:10457000FFF7E4F9E36A012202FA03F12248026834
:104580000A43026003EB83039A0029461F48104444
:10459000FFF7AEF9E26A1E4B1B68DB6A9A4204D34E
:1045A00001221C4B1A6000E00024164B1B68002BF4
:1045B000D5D10CB1FFF758FC174B1C6854B1FFF76D
:1045C0003DFF10B10122134B1A60013CF7D10022CC
:1045D000114B1A600F4B1B685BB14FF080520F4BB1
:1045E0001A60BFF34F8FBFF36F8F012402E00024E6
:1045F00000E00024FFF732F9204638BD9003002088
:1046000098030020A0030020000400202C030020B9
:104610009C030020040400202803002004ED00E097
:1046200038B505460C46FFF7F5FE154B18682A68A5
:104630001319904205D29A4209D9984209D300220F
:104640000CE09A4207D8984207D3002206E00022E5
:1046500004E0012202E0012200E001222B601AB1F5
:104660000021181AFFF71AFDFFF76AFF38B94FF05B
:104670008052044B1A60BFF34F8FBFF36F8F38BD6A
:10468000B803002004ED00E010B548B10446FFF780
:10469000C1FE00212046FFF701FDFFF751FF00E0BA
:1046A000002038B94FF08052034B1A60BFF34F8F90
:1046B000BFF36F8F10BD00BF04ED00E0184B1B6807
:1046C0001BB10122174B1A60704730B40022154B02
:1046D0001A60154B1B68B3FA83F3DBB2C3F11F03F7
:1046E000124D9900CA1890002844426854684460EA
:1046F00019448A0008322A44944205D1606803EBC9
:1047000083018A002A44506003EB83039A00074B1D
:104710001A445368DA68064B1A6030BC704700BF11
:104720009003002004040020000400202C0300203B
:104730009C03002038B50446FFF780F80CB9284BDD
:104740001C68251D2846FFF7F9F870B9E36A03EBEA
:1047500083018A0023498A583AB9012202FA03F3F5
:1047600021490A6822EA03030B60A36A1BB104F122
:104770001800FFF7E3F829461C48FFF7B9F894F84A
:104780004830DBB2012B02D1002384F84830FFF718
:1047900065F8174B1B682BB1FFF750F8FFF764FB68
:1047A000FFF75CF80E4B1B689C4217D1104B1B683F
:1047B00043B14FF080520F4B1A60BFF34F8FBFF3DE
:1047C0006F8F38BD094B1A680B4B1B689A4203D197
:1047D0000022034B1A6038BDFFF770FF38BD00BFE1
:1047E0009C0300202C03002000040020EC03002088
:1047F0000C03002004ED00E09803002010B50C46E7
:10480000044B19681831FFF77FF801212046FFF7A4
:1048100045FC10BD9C03002038B5C368DC6804F17A
:1048200018052846FFF78AF8134B1B68A3B9251D06
:104830002846FFF783F8E36A012202FA03F10F48E2
:1048400002680A43026003EB83039A0029460C487E
:104850001044FFF74DF803E029460A48FFF748F8EF
:10486000E26A094B1B68DB6A9A4203D90120074BB5
:10487000186038BD002038BD9003002000040020DF
:104880002C030020A00300209C030020040400202F
:10489000034B1B680360034B1B684360704700BFFA
:1048A00004030020B8030020F8B504460D46FEF7C7
:1048B000C5FF114B19686268881A2B68B3F1FF3F76
:1048C00013D027680D4E3668B74201D091420ED200
:1048D000984206D21B1A2B602046FFF7D9FF00240E
:1048E00006E000232B60012402E0002400E0012404
:1048F000FEF7B4FF2046F8BDB803002004030020F3
:104900000122014B1A6070470404002000B583B0F7
:104910004FF44873ADF8043010238DF807300323AB
:104920008DF8063001A90348FCF792FC03B05DF84E
:1049300004FB00BF000C014038B504460D46FFF7EC
:1049400069FD022C1AD81CB92020A04080B204E0D6
:10495000A01C202303FA00F080B235B9C04380B216
:10496000084A13881840108003E0064A1388184349
:104970001080044B19880448FCF760FDFFF7E0FD48
:1049800038BD00BF080400200010014010B50446E7
:10499000FFF740FD022C1AD81CB92020A04080B29D
:1049A00004E0A01C202303FA00F080B2094B1B880E
:1049B000184204D023EA0000064B188002E0184396
:1049C000044B1880034B19880348FCF737FDFFF7A9
:1049D000B7FD10BD08040020000C014030B583B0C5
:1049E00004460025ADF8065000E00125002362686A
:1049F0000DF106012068FFF7A1F80128F5D125B9CE
:104A0000A268138801331BB21380BDF8063001334E
:104A1000ADF80630EAE700BF70B582B00446002664
:104A2000354601E01D46012662680DF10601206849
:104A3000FFF708F90128F7D1BDF806309D42F1D102
:104A400026B9A268138801331BB213800135ADB2B9
:104A5000EAE700BF2DE9F04F83B083460C2001F058
:104A6000A9F88146002202210120FFF74DF8C9F87C
:104A700000004FF47A78C9F804803A4DC9F808501C
:104A80000C2001F097F80746D9F8003003600024A5
:104A90004460354E86600194CDF800B04B468022CC
:104AA00032493348FFF746FBDFF8DCA0019400945D
:104AB0003B4680222F495046FFF73CFB0C2001F07B
:104AC00079F80746224602210120FFF71DF83860D9
:104AD0007C60B31CBB600C2001F06CF881463B6825
:104AE0000360C0F80480AB1C8360019400943B46D3
:104AF000802221491E48FFF71DFB0194CDF800B02C
:104B00004B4680221D495046FFF714FB0C2001F054
:104B100051F80746224602210520FEF7F5FF3860CE
:104B2000C7F804800436BE600C2001F043F8064646
:104B30003B680360C0F804800435856001940094EC
:104B40003B4680220E495046FFF7F4FA0194009448
:104B5000334680220B490648FFF7ECFA03B0BDE864
:104B6000F08F00BF140400200C040020ECCD0008DE
:104B7000194A0008F4CD0008FCCD000804CE000856
:104B80000CCE000814CE0008DD49000800230120E7
:104B900020E0124A32F8132012B2114931F91310F1
:104BA0008A4200D100200D4A32F813100C4A22F834
:104BB00013100C4A32F8132012B20B4931F91310BA
:104BC0008A4200D10020074A32F81310064A22F820
:104BD00013100133022BDCDD704700BF14040020EA
:104BE000240400200C0400201C04002070B582B0B6
:104BF0000020FFF79FFDFFF715FC0446002302A9E4
:104C000041F8043D5520204A1060AF221F4800683B
:104C1000FEF794FF10B101221D4B1A60FFF702FC52
:104C2000001BAE2802D80122194B1A60BE2802D9F7
:104C30000122174B1A60144D55262E600020FFF7F5
:104C400079FDFFF7EFFB04462E60AF2201A90F4B61
:104C50001868FEF7F7FF10B101220D4B1A60FFF73D
:104C6000E1FB001BAE2802D80122094B1A60BE28C6
:104C700002D90122064B1A605522034B1A60054ADD
:104C8000136801331360B3E7300400203C040020B4
:104C9000400400204804002070B582B003210020A9
:104CA000FFF7E8FAFFF7BEFB0446AF20FFF7ECFC86
:104CB000FFF7B8FB001BB62802D90122124B1A607D
:104CC000FFF7B0FB06460190002515E005EB8500D7
:104CD000C0EB001034184B2101A8FFF7A1FCFFF72F
:104CE000A1FB001BB62802D90122074B1A60074A14
:104CF0001368013313600135042DE7D90221002028
:104D0000FFF7B8FA02B070BD400400202C04002068
:104D100030B583B0FFF7C0FF0023019320E00A23E2
:104D200003FA04F4FFF77EFB0546224669468F4BE3
:104D30001868FEF787FF10B101228D4B1A60FFF74C
:104D400071FB401B844202D90122894B1A600F3447
:104D5000A04202D90122864B1A60019B01330193C4
:104D6000019C042CDBDD002301930EE000231A4696
:104D700001A97E480068FEF7E1FE012802D0012269
:104D80007B4B1A60019B01330193019B042BEDDDEA
:104D90000023019321E00A2303FA04F4FFF742FB06
:104DA00005460023224601A970480068FEF7C6FEAA
:104DB00010B101226E4B1A60FFF734FB401B844296
:104DC00002D901226A4B1A600F34A04202D9012293
:104DD000674B1A60019B01330193019C042CDADDBF
:104DE0000022644B1A60644B1868FFF7A9FA02E0CE
:104DF0001420FFF749FC5F4B1B68552BF8D114209A
:104E0000FFF742FC00235B4A1360019331E000226C
:104E10006946564B1868FEF715FF012802D001229B
:104E2000534B1A6000231A4601A950480068FEF748
:104E300085FE012802D001224D4B1A604D4B1B68A4
:104E4000552B02D101224A4B1A6004214A4B1868A3
:104E5000FFF710FA474B1B68552B02D10122444B38
:104E60001A600121444B1868FFF704FA019B0133D3
:104E70000193019B042BCADD02E01420FFF704FC20
:104E80003C4B1B68552BF8D11420FFF7FDFB00238A
:104E9000384A136001930DE000226946334B1868CD
:104EA000FEF7D0FE012802D00122314B1A60019B8F
:104EB00001330193019B042BEEDD2F4B1868FFF7A4
:104EC0003FFA02E01420FFF7DFFB2A4B1B68552B4B
:104ED000F8D11420FFF7D8FB0023264A1360019372
:104EE00031E000231A4601A920480068FEF726FE9B
:104EF000012802D001221E4B1A60002269461B4B7A
:104F00001868FEF79FFE012802D00122184B1A6094
:104F1000184B1B68552B02D10122154B1A60042136
:104F2000154B1868FFF7A6F9124B1B68552B02D1D9
:104F300001220F4B1A6001210F4B1868FFF79AF9F5
:104F4000019B01330193019B042BCADD02E0142075
:104F5000FFF79AFB074B1B68552BF8D11420FFF77E
:104F600093FB064A136801331360D3E63C04002028
:104F70004004002030040020380400202C040020CD
:104F800010B582B0002204210520FEF7BDFD0C4BB8
:104F9000186098B1002401940223009323468022D4
:104FA00008490948FFF7C6F8084B0193012300930D
:104FB0002346802206490748FFF7BCF802B010BD1F
:104FC0003C0400201CCE0008114D000838040020CD
:104FD00024CE0008ED4B00080E4B1A680E4B1B68E0
:104FE0009A4201D0012000E000200C4B1A680C4BC3
:104FF0001B689A4200D100200A4B1B68012B00D18C
:105000000020064B1A68064B1A60024B1A68024BC6
:105010001A6070472C04002034040020480400204B
:10502000440400204004002070B582B000252E46C4
:10503000412412E04FF6FF720DF10701002000F04D
:10504000A5FE40B19DF907309C4209D1134B186869
:105050000130FFF79BFC013464B2582CEADD00E01C
:1050600001260E4B186800210130FFF765FC76B170
:1050700006E04FF6FF720DF10701002000F086FEFA
:105080009DF90730582BF4D101350026D0E7012DCA
:10509000CEDC034A136801331360C9E750040020D3
:1050A0004C04002010B541240CE0002261B21046EF
:1050B00000F078FE012803D10E4B1868FFF766FC5C
:1050C0000134E4B2582CF0D900210A4B1868FFF7DC
:1050D00033FCFFF7A7F9C31C0748A0FB0320000916
:1050E000962202FB1030312800D83220FFF7CCFA8C
:1050F000D9E700BF50040020B5814E1B30B583B006
:10510000054608460C4B1A60182100F0C7FD002424
:1051100001946B1E00932346802208490848FFF73C
:1051200009F8019400952346802206490648FFF7B6
:1051300001F803B030BD00BF500400202CCE0008A1
:10514000A550000834CE000829500008044B1B6805
:105150000BB9002000E001200022014B1A607047CB
:105160004C040020F0B583B04FF47A70FFF78CFA4E
:10517000FFF75EF9124B18600020FFF76DF8064646
:105180004FF47A70FFF780FA0E4C002525600E4F21
:10519000019400962B4680220C493846FEF7CAFF40
:1051A000019500962346802209493846FEF7C2FF42
:1051B000084A13889BB201339BB21380E0E700BF1B
:1051C0005804002004490020D95100083CCE0008B2
:1051D00044CE00085404002010B582B008B1046821
:1051E00000E000240223019359230093019A009BBD
:1051F00003FB02F30093C820FFF746FA002CF1D01E
:105200000020FFF741FA2046FEF7C6FF0020FEF718
:10521000C3FFE7E700B583B0002301930090BC22F1
:1052200003490448FEF786FF03B05DF804FB00BFA6
:105230004CCE00086551000810B50F4B1A880F4B73
:105240001B889BB29A4205D00C4B1A880A4B1A80D5
:10525000012400E00024FFF7EBF8094B1B6898429B
:1052600005D3074B1B68C01A032802D802E00024AC
:1052700000E00024204610BDE0000020540400207F
:105280005804002030B583B0FEF7D8FA0E4B1D68E5
:105290001A6801321A60FEF7E1FA40F24D1405FB7C
:1052A00004446408FFF7BEF80190214601A8FFF707
:1052B000B7F92846FFF76AFB214601A8FFF7B0F9C6
:1052C0002846FFF763FBF0E75C04002030B583B0AD
:1052D0000546002408E0002301930095802204493C
:1052E0000448FEF727FF0134022CF4DD03B030BD83
:1052F00054CE00088552000870B582B006460025DD
:10530000ADF80650002419E000231A460DF10601FD
:105310003068FEF713FC01280ED13DB9FEF78EFA76
:10532000094A136801331360FEF798FABDF8063096
:105330000133ADF8063000E001250134022CE3DD35
:10534000C820FFF7A1F9DDE76004002070B582B046
:105350000446002635461BE000220DF106012068B8
:10536000FEF770FC012813D1BDF806309D420AD12A
:105370005EB9FEF763FA0B4A136801331360FEF758
:105380006DFA2B4602E0012600E02B4601339DB268
:105390002068FEF749FD0028DED1B420FFF774F93C
:1053A000F6E700BF6404002070B582B00446002216
:1053B00002210A20FEF7A8FB0A4B186080B11D46A7
:1053C000002601960094802207490848FEF7B2FEA5
:1053D000019600942B46802205490648FEF7AAFE56
:1053E00002B070BD680400205CCE00084D53000878
:1053F00064CE0008F9520008084B1B6823B1084B23
:105400001B681BB9002002E0002000E001200023FF
:10541000024A1360024A1360704700BF6404002010
:1054200060040020F0B583B00646FEF707FA274A6D
:1054300017883FB2138801331BB21380FEF70EFAB0
:105440007468B3681BB140F6FF73019301E0FF235A
:1054500001930025B1683068FEF770FC012828D15F
:105460002268019B9A4200D00125002305E02360B9
:105470002268934200D001250133019A9342F6D964
:1054800000231A4619463068FEF758FB00B901257B
:1054900045B9032F06DC0E4A32F8173001331BB230
:1054A00022F81730B36803EB83035800FFF7ECF8DA
:1054B000D0E7B368002BCDD14FF08052054B1A6076
:1054C000BFF34F8FBFF36F8FC4E700BF7C04002092
:1054D0006C04002004ED00E0F0B583B006460C201B
:1054E00000F068FB28B30446032200210120FEF7E8
:1054F0000BFB2060E8B100231A461946FEF71EFB9D
:10550000042000F057FB6060FF2303600025A560C6
:105510001F4F01950095234680221E493846FEF70D
:1055200009FE01950095234680221B493846FEF767
:1055300001FE0C2000F03EFB044630B303220021A4
:105540000120FEF7E1FA2060F8B100231A4619465F
:10555000FEF7F4FA042000F02DFB606040F6FF73C4
:1055600003606423A3600A4D002701970096234639
:1055700080220A492846FEF7DDFD01970096234662
:10558000802207492846FEF7D5FD03B0F0BD00BFD5
:10559000255400086CCE000874CE00087CCE0008AC
:1055A00084CE00080120002310E00A4A32F91310CB
:1055B000094A32F8132012B2914200D10020064A63
:1055C00032F81310034A22F813100133032BECDDD9
:1055D000704700BF740400206C04002030B583B015
:1055E000054600247B230193019B03F56533473374
:1055F0000193019BA3EB83030193019B0A4A82FB66
:1056000003121A44DB17C3EBA2030193019A074B61
:105610009A4200D00124002CE4D1FEF70FF90123B7
:105620002B60FEF71BF9DDE7932449921B77FEFF01
:1056300030B583B0054600240CE0002301930095AB
:10564000064B03EB8403802205490648FEF772FDF2
:10565000013424B2002CF0DD03B030BD8004002002
:105660008CCE0008DD55000810B4002301200BE0AB
:105670001946074A52F8232002B900200024044AA0
:1056800042F8214001331BB2002BF1DD10BC704702
:105690008004002082B0ADF80600BDF806309BB251
:1056A000014A138002B070478404002082B0ADF834
:1056B0000600BDF806309BB2014A138002B0704765
:1056C000E200002000B583B00423ADF804300323CA
:1056D0008DF8063010238DF8073001A90648FBF736
:1056E000B7FD48F28003ADF8043001A90348FBF789
:1056F000AFFD03B05DF804FB000C01400014014055
:1057000008B5FBF739FE08BD70B506460D46114CCD
:1057100000224FF400412046FFF7F2FF00228021D3
:105720002046FFF7EDFF002204210B48FFF7E8FFBA
:1057300045EA06210948FCF70DFA02210748FCF763
:1057400023FA0028F9D0012204210348FFF7D8FFEB
:1057500070BD00BF00140140000C01400038004043
:1057600010B50C4601464220FFF7CEFFC4F30021DE
:105770004320FFF7C9FFE1B24420FFF7C5FF10BD8A
:1057800038B50546104C00224FF400412046FFF783
:10579000B7FF012280212046FFF7B2FF002204213B
:1057A0000A48FFF7ADFF29460948FCF7D3F9022163
:1057B0000748FCF7E9F90028F9D001220421034841
:1057C000FFF79EFF38BD00BF00140140000C0140F0
:1057D0000038004010B540F23F110020FFF7C0FF35
:1057E000002404E04FF6FF70FFF7CAFF0134B4F560
:1057F000963FF7D310BD00BF70B5064640F23F118B
:105800000020FFF7ADFF002516E056F82520012304
:10581000A340134205D10A4B188880B2FFF7B0FFAE
:1058200004E0084B188880B2FFF7AAFF013400E0BB
:1058300000241F2CE9D90135B5F5166FF8D370BDDA
:10584000E20000208404002010B586B00121082069
:10585000FBF7D2FF01214FF48040FBF7F3FF4FF439
:105860007043ADF8003003238DF8023018238DF813
:10587000033069461248FBF7EBFC0023ADF8043017
:105880004FF48272ADF806204FF40062ADF80820A4
:10589000ADF80A30ADF80C304FF40072ADF80E20C0
:1058A000ADF81030ADF81230064C01A92046FCF7D7
:1058B0008FF801212046FCF721F906B010BD00BF8A
:1058C000000C01400038004008B5FFF7FBFEFFF771
:1058D000BBFF10210120FFF717FFA0210020FFF7D9
:1058E00013FF01210320FFF70FFF0A20FEF7CCFE74
:1058F00000210320FFF708FF04212B20FFF704FFFE
:1059000018212820FFF700FF05211A20FFF7FCFED1
:1059100005212520FFF7F8FE00211920FFF7F4FEEE
:1059200073211C20FFF7F0FE74212420FFF7ECFE0A
:1059300001211E20FFF7E8FEC1211820FFF7E4FE39
:105940000A20FEF7A1FEE1211820FFF7DDFEF1217C
:105950001820FFF7D9FE3C20FEF796FEF52118200F
:10596000FFF7D2FE3C20FEF78FFE09211B20FFF738
:10597000CBFE0A20FEF788FE11211F20FFF7C4FE90
:105980000E212020FFF7C0FE81211E20FFF7BCFE64
:105990000A20FEF779FE00219D20FFF7B5FE0021C9
:1059A000C020FFF7B1FE00210E20FFF7ADFE002161
:1059B0000F20FFF7A9FE00211020FFF7A5FE002110
:1059C0001120FFF7A1FE00211220FFF79DFE00210C
:1059D0001320FFF799FE00211420FFF795FE002108
:1059E0001520FFF791FE00211620FFF78DFE002104
:1059F0001720FFF789FE01213420FFF785FE0021E3
:105A00003520FFF781FE00214B20FFF77DFE0021AE
:105A10004C20FFF779FE00214E20FFF775FE002194
:105A20004F20FFF771FE00215020FFF76DFE00218F
:105A30003C20FFF769FE00213D20FFF765FE0121B4
:105A40003E20FFF761FE3F210846FFF75DFE022181
:105A50004020FFF759FE02214120FFF755FE0021AB
:105A60004220FFF751FE00214320FFF74DFE0021A9
:105A70004420FFF749FE00214520FFF745FEEF21B6
:105A80004620FFF741FE00214720FFF73DFE0021A1
:105A90004820FFF739FE01214920FFF735FE3F215D
:105AA0004A20FFF731FE08211D20FFF72DFE0021BF
:105AB0008620FFF729FE30218720FFF725FE0221EF
:105AC0008820FFF721FE05218920FFF71DFE012117
:105AD0008D20FFF719FE20218B20FFF715FE0121F5
