:020000040800F2
:100000000050002015390008E10B0008E50B00083E
:10001000E90B0008ED0B0008F10B000800000000E0
:10002000000000000000000000000000F50B0008C8
:10003000F90B000800000000FD0B0008010C00088F
:10004000090C00080D0C0008110C0008150C000824
:10005000190C00081D0C0008210C0008910C000868
:10006000010D0008050D0008090D00080D0D000820
:10007000610D0008650D0008690D00086D0D000890
:10008000710D0008750D0008790D00087D0D000840
:10009000810D0008890D00088D0D0008910D0008E4
:1000A000950D0008990D00089D0D0008A10D000890
:1000B000A50D0008A90D0008AD0D0008B10D000840
:1000C000B50D0008B90D0008BD0D0008C10D0008F0
:1000D000C50D0008C90D0008CD0D0008D10D0008A0
:1000E000D50D0008D90D0008DD0D00080000000046
:1000F0000000000000000000000000000000000000
:0C01000000000000000000005FF808F1A3
:1001100010B5054C237833B9044B13B10448AFF341
:1001200000800123237010BDD002002000000000D9
:10013000407E0008084B10B51BB108490848AFF3D2
:1001400000800848036803B910BD074B002BFBD0A3
:10015000BDE81040184700BF00000000D402002096
:10016000407E0008D002002000000000034613F883
:10017000012B002AFBD1181A0138704781F0004189
:1001800002E000BF83F0004330B54FEA41044FEA7C
:10019000430594EA050F08BF90EA020F1FBF54EA17
:1001A000000C55EA020C7FEA645C7FEA655C00F0B3
:1001B000E2804FEA5454D4EB5555B8BF6D420CDD84
:1001C0002C4480EA020281EA030382EA000083EA07
:1001D000010180EA020281EA0303362D88BF30BDA7
:1001E00011F0004F4FEA01314FF4801C4CEA1131FD
:1001F00002D0404261EB410113F0004F4FEA03335C
:100200004CEA133302D0524263EB430394EA050FE6
:1002100000F0A780A4F10104D5F1200E0DDB02FA55
:100220000EFC22FA05F2801841F1000103FA0EF2E9
:10023000801843FA05F359410EE0A5F120050EF1AF
:10024000200E012A03FA0EFC28BF4CF0020C43FAE0
:1002500005F3C01851EBE37101F0004507D54FF0ED
:10026000000EDCF1000C7EEB00006EEB0101B1F53D
:10027000801F1BD3B1F5001F0CD349085FEA300083
:100280004FEA3C0C04F101044FEA445212F5800F8E
:1002900080F09A80BCF1004F08BF5FEA500C50F12B
:1002A000000041EB045141EA050130BD5FEA4C0C0E
:1002B000404141EB010111F4801FA4F10104E9D197
:1002C00091F0000F04BF01460020B1FA81F308BF8E
:1002D0002033A3F10B03B3F120020CDA0C3208DD5A
:1002E00002F1140CC2F10C0201FA0CF021FA02F135
:1002F0000CE002F11402D8BFC2F1200C01FA02F1A5
:1003000020FA0CFCDCBF41EA0C019040E41AA2BFC9
:1003100001EB0451294330BD6FEA04041F3C1CDA91
:100320000C340EDC04F11404C4F1200220FA04F0B1
:1003300001FA02F340EA030021FA04F345EA03015B
:1003400030BDC4F10C04C4F1200220FA02F001FA1D
:1003500004F340EA0300294630BD21FA04F029469F
:1003600030BD94F0000F83F4801306BF81F4801138
:100370000134013D4EE77FEA645C18BF7FEA655CAB
:1003800029D094EA050F08BF90EA020F05D054EA7D
:10039000000C04BF1946104630BD91EA030F1EBF82
:1003A0000021002030BD5FEA545C05D14000494186
:1003B00028BF41F0004130BD14F580043CBF01F579
:1003C000801130BD01F0004545F0FE4141F470015F
:1003D0004FF0000030BD7FEA645C1ABF194610463A
:1003E0007FEA655C1CBF0B46024650EA013406BF3B
:1003F00052EA033591EA030F41F4002130BD00BFFA
:1004000090F0000F04BF0021704730B54FF48064B6
:1004100004F132044FF000054FF0000150E700BF37
:1004200090F0000F04BF0021704730B54FF4806496
:1004300004F1320410F0004548BF40424FF0000183
:100440003EE700BF42004FEAE2014FEA31014FEAC6
:1004500002701FBF12F07F4393F07F4F81F0605115
:10046000704792F0000F14BF93F07F4F704730B584
:100470004FF4607401F0004521F0004120E700BF17
:1004800050EA010208BF704730B54FF000050AE09E
:1004900050EA010208BF704730B511F0004502D59F
:1004A000404261EB41014FF4806404F132045FEAA1
:1004B000915C3FF4DCAE4FF003025FEADC0C18BF46
:1004C00003325FEADC0C18BF033202EBDC02C2F13C
:1004D000200300FA03FC20FA02F001FA03FE40EACE
:1004E0000E0021FA02F11444C1E600BF70B54FF0CE
:1004F000FF0C4CF4E06C1CEA11541DBF1CEA1355B0
:1005000094EA0C0F95EA0C0F00F0DEF82C4481EA17
:10051000030621EA4C5123EA4C5350EA013518BF37
:1005200052EA033541F4801143F4801338D0A0FB24
:1005300002CE4FF00005E1FB02E506F00042E0FBD1
:1005400003E54FF00006E1FB03569CF0000F18BFD7
:100550004EF0010EA4F1FF04B6F5007F64F540747F
:1005600004D25FEA4E0E6D4146EB060642EAC62112
:1005700041EA55514FEAC52040EA5E504FEACE2E7F
:10058000B4F1FD0C88BFBCF5E06F1ED8BEF1004F82
:1005900008BF5FEA500E50F1000041EB045170BDFE
:1005A00006F0004646EA010140EA020081EA030142
:1005B000B4EB5C04C2BFD4EB0C0541EA045170BD3E
:1005C00041F480114FF0000E013C00F3AB8014F1B8
:1005D000360FDEBF002001F0004170BDC4F1000401
:1005E000203C35DA0C341BDC04F11404C4F1200582
:1005F00000FA05F320FA04F001FA05F240EA0200DD
:1006000001F0004221F0004110EBD37021FA04F612
:1006100042EB06015EEA430E08BF20EAD37070BDCC
:10062000C4F10C04C4F1200500FA04F320FA05F02B
:1006300001FA04F240EA020001F0004110EBD3702D
:1006400041F100015EEA430E08BF20EAD37070BD9D
:10065000C4F1200500FA05F24EEA020E20FA04F376
:1006600001FA05F243EA020321FA04F001F0004125
:1006700021FA04F220EA020000EBD3705EEA430E96
:1006800008BF20EAD37070BD94F0000F0FD101F0C5
:100690000046400041EB010111F4801F08BF013CFE
:1006A000F7D041EA060195F0000F18BF704703F03C
:1006B0000046520043EB030313F4801F08BF013DC3
:1006C000F7D043EA0603704794EA0C0F0CEA13557F
:1006D00018BF95EA0C0F0CD050EA410618BF52EA39
:1006E0004306D1D181EA030101F000414FF000003F
:1006F00070BD50EA410606BF1046194652EA43064D
:1007000019D094EA0C0F02D150EA013613D195EAC0
:100710000C0F05D152EA03361CBF104619460AD108
:1007200081EA030101F0004141F0FE4141F4700112
:100730004FF0000070BD41F0FE4141F4780170BD02
:1007400070B54FF0FF0C4CF4E06C1CEA11541DBF67
:100750001CEA135594EA0C0F95EA0C0F00F0A7F869
:10076000A4EB050481EA030E52EA03354FEA013196
:1007700000F088804FEA03334FF0805545EA1313A9
:1007800043EA12634FEA022245EA111545EA106571
:100790004FEA00260EF000419D4208BF964244F108
:1007A000FD0404F5407402D25B084FEA3202B61A27
:1007B00065EB03055B084FEA32024FF480104FF4FB
:1007C000002CB6EB020E75EB030E22BFB61A75466F
:1007D00040EA0C005B084FEA3202B6EB020E75EB02
:1007E000030E22BFB61A754640EA5C005B084FEA6A
:1007F0003202B6EB020E75EB030E22BFB61A754637
:1008000040EA9C005B084FEA3202B6EB020E75EB41
:10081000030E22BFB61A754640EADC0055EA060E02
:1008200018D04FEA051545EA16754FEA06164FEA45
:10083000C30343EA52734FEAC2025FEA1C1CC0D1F1
:1008400011F4801F0BD141EA00014FF000004FF07E
:10085000004CB6E711F4801F04BF01430020B4F13F
:10086000FD0C88BFBCF5E06F3FF6AFAEB5EB030CF7
:1008700004BFB6EB020C5FEA500C50F1000041EBF4
:10088000045170BD0EF0004E4EEA113114EB5C04C1
:10089000C2BFD4EB0C0541EA045170BD41F4801194
:1008A0004FF0000E013C90E645EA060E8DE60CEA9C
:1008B000135594EA0C0F08BF95EA0C0F3FF43BAFB9
:1008C00094EA0C0F0AD150EA01347FF434AF95EA70
:1008D0000C0F7FF425AF104619462CE795EA0C0F54
:1008E00006D152EA03353FF4FDAE1046194622E721
:1008F00050EA410618BF52EA43067FF4C5AE50EAFB
:1009000041047FF40DAF52EA43057FF4EBAE12E7EA
:100910004FF0FF3C06E000BF4FF0010C02E000BFCB
:100920004FF0010C4DF804CD4FEA410C7FEA6C5CAE
:100930004FEA430C18BF7FEA6C5C1BD001B050EA51
:10094000410C0CBF52EA430C91EA030F02BF90EA3C
:10095000020F0020704710F1000F91EA030F58BFFB
:10096000994208BF90422CBFD8176FEAE37040F05D
:10097000010070474FEA410C7FEA6C5C02D150EAFB
:10098000013C07D14FEA430C7FEA6C5CD6D152EAB6
:10099000033CD3D05DF8040B704700BF844610467B
:1009A00062468C461946634600E000BF01B5FFF77A
:1009B000B7FF002848BF10F1000F01BD4DF808ED4A
:1009C000FFF7F4FF0CBF012000205DF808FB00BF1B
:1009D0004DF808EDFFF7EAFF34BF012000205DF875
:1009E00008FB00BF4DF808EDFFF7E0FF94BF0120C2
:1009F00000205DF808FB00BF4DF808EDFFF7CEFFC3
:100A000094BF012000205DF808FB00BF4DF808ED01
:100A1000FFF7C4FF34BF012000205DF808FB00BFD2
:100A20004FEA410C7FEA6C5C02D150EA013C0AD1EA
:100A30004FEA430C7FEA6C5C02D152EA033C02D1DC
:100A40004FF0000070474FF0010070474FEA41023D
:100A500012F5001215D211D56FF47873B3EB625210
:100A600012D94FEAC12343F0004343EA505311F037
:100A7000004F23FA02F018BF404270474FF00000C9
:100A8000704750EA013005D111F0004008BF6FF007
:100A9000004070474FF00000704700BF4A0011D27D
:100AA00012F5001211D20DD56FF47873B3EB6252C8
:100AB0000ED44FEAC12343F0004343EA505323FAD4
:100AC00002F070474FF00000704750EA013002D149
:100AD0004FF0FF3070474FF0000070474FEA41027F
:100AE000B2F1E04324BFB3F5001CDCF1FE5C0DD98C
:100AF00001F0004C4FEAC0024CEA5070B2F1004FD6
:100B000040EB830008BF20F00100704711F0804FD8
:100B100021D113F13872BCBF01F00040704741F49D
:100B200080114FEA5252C2F11802C2F1200C10FAA1
:100B30000CF320FA02F018BF40F001004FEAC12385
:100B40004FEAD32303FA0CFC40EA0C0023FA02F329
:100B50004FEA4303CCE77FEA625307D150EA0133FF
:100B60001EBF4FF0FE4040F44000704701F00040CF
:100B700040F0FE4040F40000704700BF08B500F0B0
:100B800051F9134C204601F025FB00F06DF900F0FF
:100B90000DFA00F053FA00F027F923680D4AA2FB82
:100BA00003239B09013B0C4A5360F0210B4B83F854
:100BB0002310002090600723136000F0E7F94FF442
:100BC000FA7000F099FA00F053FB02F02DFEFCE7FA
:100BD00014030020D34D621010E000E000ED00E0AF
:100BE000704700BFFEE700BFFEE700BFFEE700BFA3
:100BF000FEE700BF704700BF704700BF704700BFEF
:100C000008B500F093FA08BD704700BF704700BFF9
:100C1000704700BF704700BF704700BF704700BFFC
:100C200008B5012000F0E0FF48B3154803F05CFD73
:100C3000144B1B78012B1FD10522134B1A70134B39
:100C40001B7833B10022114B1A7001220E4B5A70DF
:100C500005E001220D4B1A7000220B4B5A70022244
:100C60004FF48071084802F0EDFB0221012002F0F0
:100C7000EBFC012002F056FC012000F0FFFF08BD54
:100C8000587E0008EC02002028030020ED0200201E
:100C900008B5022000F0A8FF48B3154803F024FD72
:100CA000144B1B78012B1FD10622134B1A70134BC8
:100CB0001B7833B10022114B1A7001220E4B5A706F
:100CC00005E001220D4B1A7000220B4B5A700222D4
:100CD0004FF48071084802F0B5FB0221012002F0B8
:100CE000B3FC012002F01EFC022000F0C7FF08BD8B
:100CF000707E0008EC02002028030020EE02002095
:100D0000704700BF704700BF704700BF08B507229B
:100D1000104B1A70104B1B681B09104A1268A3EB8A
:100D20001212042A11D90B48437002224FF4807129
:100D300002F088FB0221012002F086FC012002F073
:100D4000F1FB054B1A68054B1A60022000F0C0FE4B
:100D500008BD00BF28030020F0020020F40200209C
:100D6000704700BF704700BF704700BF704700BFAB
:100D7000704700BF704700BF704700BF704700BF9B
:100D800008B500F099FB08BD704700BF704700BF71
:100D9000704700BF704700BF704700BF704700BF7B
:100DA000704700BF704700BF704700BF704700BF6B
:100DB000704700BF704700BF704700BF704700BF5B
:100DC000704700BF704700BF704700BF704700BF4B
:100DD000704700BF704700BF704700BF08B54FF4B1
:100DE000802000F04BFF08BD10B584B04FF4E13314
:100DF00000930023ADF80430ADF80630ADF80830AC
:100E0000ADF80C300C23ADF80A30054C694620468D
:100E100001F008FB0121204601F0BEFB04B010BD2B
:100E20000038014008B502F0B1FC0121042001F0B6
:100E300059FA0121082001F055FA0121102001F092
:100E400051FA0121202001F04DFA01214FF4804098
:100E500001F048FA0121084601F044FA0121084650
:100E600001F01AFA08BD00BF30B583B000214FF081
:100E7000006000F0E1FD4FF4E06000F071FD06233A
:100E80008DF8043000258DF805508DF806500124AA
:100E90008DF8074001A800F083FD07238DF804308A
:100EA0008DF805508DF806408DF8074001A800F038
:100EB00077FD03B030BD00BF08B5002001F07AF91E
:100EC00001214FF4000001F033FA08BD08B50322F8
:100ED000034B1A600121084601F0EAF808BD00BF83
:100EE0000003002008B54FF4803001F009F901F04B
:100EF0007FFA012001F032F9392001F03FFA002891
:100F0000FAD0022001F03AF901F04CF90828FBD19F
:100F1000054B9B7A1BB10522044B1A6008BD0122C8
:100F2000024B1A6008BD00BF4803002000030020E8
:100F300030B583B04FF4A06000F012FD14238DF89B
:100F4000043001258DF8055000248DF806408DF8F9
:100F5000075001A800F024FD2A238DF804308DF8F5
:100F600005408DF806408DF8075001A800F018FDE7
:100F70000B238DF804308DF805408DF806408DF870
:100F8000075001A800F00CFD03B030BD08B528B132
:100F90004FF48071044800F0A3FF08BD4FF4807146
:100FA000014800F06DFF08BD0008014070B582B037
:100FB0004FF40073ADF8043003258DF80650182364
:100FC0008DF807301B4C01A9204600F069FE4FF454
:100FD0008063ADF8043004268DF807600DEB060140
:100FE000204600F05DFEADF804508DF807600DEB73
:100FF0000601204600F054FE4FF44873ADF804306B
:101000008DF8065010238DF807300DEB06010A48C5
:1010100000F046FE4FF48073ADF804308DF80650B2
:1010200014238DF807300DEB0601204600F038FE42
:1010300002B070BD00080140000C014070B582B0E4
:101040000021084601F008F80124009400258DF8DD
:1010500004500C268DF805608DF80640684600F0B7
:1010600057FD2146284600F0F7FF022300938DF834
:1010700004508DF805608DF80640684600F048FD84
:101080004FF4802000F0FAFD4FF4802300930823F2
:101090008DF805308DF80640684600F039FD02B045
:1010A00070BD00BF124B1A68043318680433196806
:1010B000EAB110B40F4B9A70C2F307241C71C2F34B
:1010C00007449C71120E1A729872C0F307221A73A9
:1010D000C0F307429A73000E18749974C1F3072283
:1010E0001A75C1F307429A75090E197610BC70473C
:1010F000E8F7FF1F0000002082B00190019A044B26
:101100001A60034B1B68002BFBD102B0704700BF75
:10111000F802002008B54FF47A70FFF7EDFF08BD24
:1011200008B56420FFF7E8FF08BD00BF034B1B684C
:101130001BB1024A1368013B13607047F80200209C
:1011400038B504462021204601F0A8FA0028F9D03D
:10115000204601F081FAC5B22946204601F050FA36
:101160008021204601F09AFA0028F9D00D2D01D1F6
:101170000A2038BD284638BD08B50146014803F0AD
:1011800041FA08BD8C7E000808B50A4601460248AF
:1011900003F038FAFEE700BFD07E000838B500F053
:1011A00067F8002400E02C46FFF7BAFF651C14F036
:1011B000010F02D100F040F801E000F047F80121F2
:1011C0000A4800F001FE012802D100F011F801E008
:1011D00000F018F80221054800F0F6FD012802D1C0
:1011E00000F01AF8DFE700F01FF8DCE70008014024
:1011F00008B54FF40071024800F072FE08BD00BF50
:10120000000C014008B54FF40071024800F038FEB0
:1012100008BD00BF000C014008B52021014800F0C6
:101220005FFE08BD000C014008B52021014800F018
:1012300027FE08BD000C014008B54FF4807102483C
:1012400000F04EFE08BD00BF000C014008B54FF491
:101250008071024800F014FE08BD00BF000C014080
:1012600008B5FFF7C5FFFFF7D7FFFFF7E5FF08BD9C
:1012700008B5FFF7C7FFFFF7D7FFFFF7E7FF08BD88
:1012800010B5044618E0FFF7BDFFFFF7C5FFFFF7F5
:10129000D3FFFFF73FFFFFF7ABFFFFF7C5FFFFF7F8
:1012A000CBFFFFF737FFFFF7A3FFFFF7B5FFFFF710
:1012B000CDFFFFF72FFF013C002CE4D110BD00BF94
:1012C00008B5FFF7CDFFFFF725FFFFF7D1FFFFF7C9
:1012D00021FF0320FFF7D4FF08BD00BF024A536976
:1012E00043F480735361704700100140024A536910
:1012F00018435061704700BF00100140024A136953
:1013000018431061704700BF0010014008B5FF206E
:10131000FFF7F4FF08BD00BF10B50446FFF7F6FF66
:10132000092C2DD8DFE804F005090D1115191D2130
:1013300025293F20FFF7DAFF10BD0620FFF7D6FF73
:1013400010BD9B20FFF7D2FF10BD8F20FFF7CEFF0F
:1013500010BDA620FFF7CAFF10BDAD20FFF7C6FFE6
:1013600010BDBD20FFF7C2FF10BD2720FFF7BEFF55
:1013700010BDBF20FFF7BAFF10BDAF20FFF7B6FFCB
:1013800010BD00BF10B582B0274803F0ADF9274A61
:10139000936943F01003936140F2FF13ADF80430FA
:1013A00003238DF8063010248DF8074001A920484A
:1013B00000F076FCFFF792FFFFF7ACFEFFF7A6FF09
:1013C0000120FFF793FFFFF7A5FE0220FFF78EFF36
:1013D000FFF7A0FE0420FFF789FFFFF79BFE082020
:1013E000FFF784FFFFF796FE2046FFF77FFFFFF72A
:1013F00091FE2020FFF77AFFFFF78CFE8020FFF799
:1014000075FFFFF787FE4020FFF770FFFFF782FEB2
:10141000002405E02046FFF77FFFFFF77BFE013445
:10142000092CF7DD02B010BD007F0008001002405B
:101430000010014008B50248FFF79EFE08BD00BF3E
:101440005880000810B51948FFF796FE184C022284
:101450004FF48271204602F00BF863780BB9012239
:1014600000E00022124B1B78022B09D0032B0CD07A
:10147000012B10D14FF400710E4800F061FD0FE018
:1014800020210C4800F05CFD0AE04FF4807109480F
:1014900000F056FD04E04FF6DF41064800F0B2FDD3
:1014A0004FF44051012002F023F810BD44800008A1
:1014B0002C030020000C014008B5384B1B689BB280
:1014C000374A13801388374A128803F480631A421C
:1014D00006D04FF6FF32314B1A60334B5B689847AA
:1014E0002F4B1B882F4A128803F400531A4203D053
:1014F0004DF6FF72294B1A60294B1B88294A128826
:1015000003F480531A4206D04EF6FF72234B1A6042
:10151000002000F0B9F9224B1B88224A128803F4FC
:1015200000631A420ED0214B1B7813F0FF0F02D03C
:1015300000F088F902E0022000F0A6F94FF2FF72F5
:10154000164B1A60164B1B88164A128803F4007358
:101550001A4208D04FF6FF52104B1A60144A137803
:101560000133DBB213700E4B1B880E4A128803F452
:1015700080731A4206D04FF6FF62084B1A600720AC
:1015800000F082F9064B1B88064A128803F40043D8
:101590001A4201D001F0E6FD08BD00BF445C0040E6
:1015A0002E0300206C0300205C000020EA000020D5
:1015B000FC0200200422014B1A6070470003002047
:1015C000704700BF704700BF06280FD1174B1A683D
:1015D000137803F07F03012B08D1537933B9937843
:1015E000222B0ED0212B0ED0002311E00F4B1B68B5
:1015F0001B7803F07F03212B07D1032807D000239A
:1016000006E00B4B04E00B4B02E0002300E00A4B2A
:101610004BB110B5054A12689361002454822046EC
:101620009847204610BD0220704700BF6803002085
:10163000BD170008CD1700084D16000811B918B1E4
:1016400002207047022070470020704720B9034BEA
:101650001B6801221A827047014870476803002006
:101660003003002010B5FFF71DFD084B1B68002458
:101670009C7200F0D3F8064B1C604FF43F43054AC0
:101680001380054A1360054B1C6010BD68030020E1
:10169000445C00406C030020405C004000030020DC
:1016A00010B5274B1B6800249C72DC72254AD27946
:1016B0005A72204601F0ECFE4FF40071204601F012
:1016C000EFFE1021204601F0F9FE1821204601F01E
:1016D0008FFF5821204601F07BFF204601F042FF9A
:1016E000194B93F82C10204601F0BCFF204601F066
:1016F00029FF4FF4C061012001F0D2FE4FF4807148
:10170000012001F065FF4FF48271012001F070FFAC
:101710000221012001F098FF0221012001F0A2FF27
:101720004FF44051012001F0E3FE2021012001F09F
:10173000C5FE0122054B1A60204601F0A1FC10BD38
:1017400068030020148000085C00002000030020D3
:1017500008B5064B1B689B7A33B10522044B1A600F
:101760000121044800F08AF908BD00BF6803002089
:10177000000300200024014008B5024901F0F2FBFB
:1017800008BD00BFB800002008B5024901F0EAFB1F
:1017900008BD00BF5400002008B5064B1B68DB786D
:1017A000042B05D8044901EBC30101F0DBFB08BDA4
:1017B000002008BD68030020C000002008B50249D1
:1017C00001F0D0FB08BD00BFB000002008B5024901
:1017D00001F0C8FB08BD00BFE0000020034B1B6800
:1017E000DA78034B1A600020704700BF68030020BE
:1017F0003003002008B5084B1B681B7803F07F03FB
:10180000212B04D10B2804D1FFF7E8FF08BD0220EB
:1018100008BD022008BD00BF68030020064B01225E
:101820001A6000201860054A10604FF4E052044925
:101830000A801A60704700BF405C0040445C004072
:101840006C03002008B5074A13689BB243F00803F5
:10185000136013689BB243F004031360FFF736FB79
:1018600008BD00BF405C004010B5064C23689BB229
:1018700023F004039BB22360FFF734FB4FF43F4394
:10188000236010BD405C004008B5072801D0274BFD
:101890001870264B1B78DBB2052B43D8DFE803F02A
:1018A00003090F15222EFFF7DFFF06221F4B1A70C8
:1018B00008BDFFF7D9FF04221C4B1A7008BD1B4B53
:1018C00002225A7003221A7008BD184A5378013B4D
:1018D000DBB25370537813F0FF0F26D10422134B61
:1018E0001A7008BD124A13689BB243F010031360CC
:1018F0000E4B05221A700A225A7008BD0B4A537803
:10190000013BDBB25370537813F0FF0F0DD1084A3F
:1019100013689BB223F010039BB213600622034BA3
:101920001A7008BD0622014B1A7008BD340300204E
:10193000405C004070B50E46154600240AE0315D5B
:10194000064800F05DFE8021044800F0A7FE002854
:10195000F9D00134AC42F2D3284670BD00380140C2
:1019600010B50446B0F5E06F0FD0B0F5C06F0CD0E5
:10197000B0F5A06F09D0B0F5806F06D0B0F5407F0C
:1019800003D062210448FFF7FFFB44F0BF6444F436
:101990000034024BDC6010BD6880000800ED00E000
:1019A00010B50446C378012B03D974211F48FFF7F3
:1019B000EBFB63780F2B03D975211C48FFF7E4FB81
:1019C000A3780F2B03D976211848FFF7DDFBE378C6
:1019D000FBB1174BDB68DB43C3F30223C3F1040104
:1019E0000F22DA40637803FA01F1A37813400B4326
:1019F0001B012278DBB20F490A4482F800332378B6
:101A0000580903F01F03012202FA03F341F82030C2
:101A100010BD23785A0903F01F03012101FA03F3D3
:101A20002032044941F8223010BD00BF6880000810
:101A300000ED00E000E100E038B505460C46B0F1ED
:101A4000005F06D0B0F1006F03D09D210848FFF77A
:101A50009BFB084B9C4203D99E210548FFF794FB52
:101A600024F0604121F07F012943034B996038BD88
:101A700068800008FEFF070000ED00E038B504466E
:101A80000D46114B98420CD003F58063984208D064
:101A900003F5A053984204D040F2CB110B48FFF756
:101AA00073FB012D04D94FF4E6710848FFF76CFB76
:101AB00025B1A36843F4A003A36038BDA36823F451
:101AC000A003A36038BD00BF00240140908000083F
:101AD00010B5044610F0704F02D0094B034003B913
:101AE00024B94FF4FD710748FFF74EFB14F0805FF7
:101AF00002D0054B5C6010BD044B5C6010BD00BFA4
:101B00000000F0EFC0800008000402400000024026
:101B100010B5044603792BB1042B03D0692130485A
:101B2000FFF732FB6379082B07D00C2B05D0102B65
:101B300003D06A212A48FFF727FB2268130D1B05F3
:101B400003B91AB96B212648FFF71EFBA379012BB5
:101B500003D96C212248FFF717FBA379002B33D060
:101B6000204B1A68216822EA01021A605A6821682B
:101B700022EA01025A60227902F1804202F58232A1
:101B800010682168014311609A68216822EA010205
:101B90009A60DA68216822EA0102DA606379102B20
:101BA00009D1104B996822680A439A60D968226863
:101BB0000A43DA6010BD03F1804303F582331968EC
:101BC00022680A431A6010BD237903F1804303F5AC
:101BD00082331A68216822EA01021A6010BD00BF30
:101BE000F08000080004014010B50446431E012B9C
:101BF00033D9042831D008282FD010282DD0202800
:101C00002BD0402829D0802827D0B0F5807F24D041
:101C1000B0F5007F21D0B0F5806F1ED0B0F5006F19
:101C20001BD0B0F5805F18D0B0F5005F15D0B0F5CF
:101C3000804F12D0B0F5004F0FD0B0F5803F0CD0E0
:101C4000B0F5003F09D0B0F5802F06D0B0F5002FD9
:101C500003D0E4210748FFF797FA074A13682340A7
:101C60005269144202D01BB9002010BD002010BDE3
:101C7000012010BDF08000080004014010B50446AA
:101C8000030D1B0503B918B9FB210348FFF77CFAC4
:101C9000024B5C6110BD00BFF080000800040140F1
:101CA000F8B505460C46464B98421BD003F58063B9
:101CB000984217D003F58063984213D003F58063F0
:101CC00098420FD003F5806398420BD003F58063F0
:101CD000984207D003F58063984203D0B121394878
:101CE000FFF752FAE3788BB1042B0FD0282B0DD0DD
:101CF000482B0BD0142B09D0102B07D01C2B05D050
:101D0000182B03D0B2212F48FFF73EFA23881BB9C6
:101D1000B3212C48FFF738FAE37803F00F0630467A
:101D200013F0100F0AD0A378013BDBB2022B03D9CA
:101D3000BA212448FFF728FAA07830432378E3B18A
:101D40002E68002316E001229A40218832EA010120
:101D50000FD199000F278F4026EA070600FA01F1FC
:101D60000E43E178282901D16A6102E0482900D1B7
:101D70002A610133072BE6D92E602388FF2B1ED959
:101D80006E68002318E003F1080101228A402188CF
:101D900032EA01010FD199000F278F4026EA07068A
:101DA00000FA01F10E43E178282900D16A61E17857
:101DB000482900D12A610133072BE4D96E60F8BDB0
:101DC000000801402081000838B504460D462A4B22
:101DD00098421CD003F58063984218D003F58063C5
:101DE000984214D003F58063984210D003F58063C5
:101DF00098420CD003F58063984208D003F58063C5
:101E0000984204D040F21D111C48FFF7BDF96B1E2B
:101E10009BB2012B28D9042D26D0082D24D0102DBB
:101E200022D0202D20D0402D1ED0802D1CD0B5F5E5
:101E3000807F19D0B5F5007F16D0B5F5806F13D02F
:101E4000B5F5006F10D0B5F5805F0DD0B5F5005F2A
:101E50000AD0B5F5804F07D0B5F5004F04D04FF448
:101E60008F710648FFF790F9A3681D4201D0012049
:101E700038BD002038BD00BF0008014020810008A7
:101E800038B504460D46144B98421CD003F58063C8
:101E9000984218D003F58063984214D003F580630C
:101EA000984210D003F5806398420CD003F580630C
:101EB000984208D003F58063984204D04FF4B4717F
:101EC0000648FFF761F925B940F269110348FFF7A9
:101ED0005BF9256138BD00BF000801402081000882
:101EE00038B504460D46144B98421CD003F5806368
:101EF000984218D003F58063984214D003F58063AC
:101F0000984210D003F5806398420CD003F58063AB
:101F1000984208D003F58063984204D04FF4BC7116
:101F20000648FFF731F925B940F279110348FFF768
:101F30002BF9656138BD00BF000801402081000811
:101F400070B504460D4616462C4B98421CD003F53E
:101F50008063984218D003F58063984214D003F54B
:101F60008063984210D003F5806398420CD003F54B
:101F70008063984208D003F58063984204D04FF400
:101F8000C6711F48FFF700F96B1E9BB2012B28D9C1
:101F9000042D26D0082D24D0102D22D0202D20D085
:101FA000402D1ED0802D1CD0B5F5807F19D0B5F501
:101FB000007F16D0B5F5806F13D0B5F5006F10D047
:101FC000B5F5805F0DD0B5F5005F0AD0B5F5804F4F
:101FD00007D0B5F5004F04D040F28D110848FFF747
:101FE000D3F8012E04D94FF4C7710548FFF7CCF898
:101FF0000EB1256170BD656170BD00BF0008014074
:102000002081000838B504460D46114B98421CD07B
:1020100003F58063984218D003F58063984214D08A
:1020200003F58063984210D003F5806398420CD08A
:1020300003F58063984208D003F58063984204D08A
:1020400040F2A3110348FFF79FF8E56038BD00BFD9
:10205000000801402081000870B505460C4606289E
:1020600004D94FF411711048FFF78EF80F2C04D9E2
:1020700040F245210C48FFF787F804F00302920074
:102080000F2000FA02F6A108084B023153F8210094
:1020900020EA060043F8210053F82100954005434B
:1020A00043F8215070BD00BF2081000800000140AE
:1020B00038B505460C46012803D9D0210D48FFF755
:1020C00063F8631EDBB2012B03D9D1210948FFF766
:1020D0005BF8094B186820F0030028431860074A92
:1020E000136843F004031360012C01D130BF38BDE5
:1020F00020BF38BD508100080070004010ED00E0A6
:1021000010B5044650B1B0F5803F07D0B0F5802F30
:1021100004D040F211110F48FFF736F80E4B1A6841
:1021200022F480321A601A6822F480221A60B4F510
:10213000803F03D0B4F5802F06D010BD064A136847
:1021400043F48033136010BD034A136843F4A023A3
:10215000136010BD808100080010024010B50446D5
:10216000012804D94FF4CA710248FFF70DF8024B59
:102170001C6010BD808100086000424210B504461A
:10218000022804D94FF40D710448FEF7FDFF044BFB
:10219000586820F003002043586010BD808100087B
:1021A00000100240024B586800F00C00704700BF5E
:1021B0000010024010B50446012804D940F2D7218E
:1021C0000248FEF7E1FF024B1C6010BD8081000851
:1021D000D800424210B4294B5B6803F00C03042B77
:1021E00005D0082B06D013BB254B036021E0254BFF
:1021F00003601EE0214A53685268C3F383430233ED
:1022000012F4803F04D1204A02FB03F3036010E084
:102210001A4A526812F4003F04D01C4A02FB03F32E
:10222000036006E0174A02FB03F3036001E0144B6E
:10223000036012494B68C3F30313154CE35CDAB235
:102240000368D34043604A68C2F30222A25CD2B260
:1022500023FA02F282604A68C2F3C222A25CD2B2BE
:10226000D340C3604A68C2F381320A498A5CD2B261
:10227000B3FBF2F3036110BC704700BF00100240D3
:1022800000127A00001BB70000093D00808D5B0042
:10229000F0000020EC00002038B504460D4620F484
:1022A000AA6323F0070303B920B940F21A410B488F
:1022B000FEF76AFF012D04D940F21B410748FEF7E3
:1022C00063FF25B1064A53691C43546138BD044A73
:1022D000536923EA0404546138BD00BF80810008BB
:1022E0000010024038B504460D4620F47F4323F029
:1022F000FD0303B920B940F237410B48FEF744FF14
:10230000012D04D94FF487610748FEF73DFF25B141
:10231000064A93691C43946138BD044A936923EAD1
:102320000404946138BD00BF8081000800100240A1
:1023300038B504460D460E4B034003B920B940F2B0
:1023400055410C48FEF720FF012D04D940F25641BB
:102350000848FEF719FF25B1074AD3691C43D46129
:1023600038BD054AD36923EA0404D46138BD00BFEF
:10237000C03701C1808100080010024010B504463A
:10238000212818D0312816D0392814D0412812D04D
:10239000612810D07A280ED07B280CD07C280AD057
:1023A0007D2808D07E2806D07F2804D040F21D5119
:1023B0000D48FEF7E9FE6309012B02D10B4B1B68A8
:1023C00006E0022B02D1094B1B6A01E0074B5B6A56
:1023D00004F01F0423FA04F414F0010F01D00120CB
:1023E00010BD002010BD00BF808100080010024019
:1023F00000B583B0002301933120FFF7BFFF019B9D
:1024000001330193019BB3F5A06F01D00028F3D0F5
:102410003120FFF7B3FF08B1012000E0002003B036
:102420005DF804FB30B587B004460D46564B984224
:1024300013D0A3F5744398420FD003F580639842FC
:102440000BD003F58063984207D003F58063984270
:1024500003D0AD214D48FEF797FE2B68013B4C4A57
:10246000934203D9AE214948FEF78EFEAB8833B1C3
:10247000B3F5805F03D0AF214448FEF785FEEB88BB
:1024800063B1B3F5805F09D0B3F5005F06D0B3F553
:10249000405F03D0B0213D48FEF776FE2B894BB15B
:1024A000B3F5806F06D0B3F5C06F03D0B1213748C4
:1024B000FEF76AFE6A8922F00C039BB203B91AB9CF
:1024C000B2213248FEF760FEAB8963B1B3F5807F7D
:1024D00009D0B3F5007F06D0B3F5407F03D0B32118
:1024E0002A48FEF751FEAB8973B1274B9C420BD0B3
:1024F000A3F574439C4207D003F580639C4203D04C
:10250000B7212248FEF740FE238A9BB2EA8823F4D3
:10251000405313432382A3899BB2AA8829896889DF
:102520000A43024323F4B05323F00C031343A38163
:10253000A38A9BB2AA8923F440731343A38201A800
:10254000FFF748FE104B9C4201D1049A00E0039A29
:1025500002EB820202EB82022B689B00B2FBF3F2D9
:102560000C4BA3FB0210400900010109642505FB87
:10257000112212013232A3FB0223C3F3431303439C
:102580009BB2238107B030BD00380140B081000804
:102590001FAA44001F85EB5138B504460D46164B63
:1025A000984214D0A3F57443984210D003F5806389
:1025B00098420CD003F58063984208D003F58063FD
:1025C000984204D04FF4A1710C48FEF7DDFD012DB7
:1025D00004D940F243110948FEF7D6FD2DB1A38975
:1025E0009BB243F40053A38138BDA3899BB223F46B
:1025F00000539BB2A38138BD00380140B081000870
:1026000038B504460D46124B984214D0A3F57443D6
:10261000984210D003F5806398420CD003F5806394
:10262000984208D003F58063984204D040F23221EA
:102630000848FEF7A9FDB5F5007F04D340F2332129
:102640000448FEF7A1FDC5F30805A58038BD00BF0D
:1026500000380140B081000810B504460D4B984287
:1026600014D0A3F57443984210D003F580639842C8
:102670000CD003F58063984208D003F5806398423C
:1026800004D040F243210448FEF77EFDA088C0F349
:10269000080010BD00380140B081000838B505467B
:1026A0000C46264B984214D0A3F57443984210D0A0
:1026B00003F5806398420CD003F58063984208D0FC
:1026C00003F58063984204D040F213311C48FEF7B2
:1026D0005BFD012C18D0802C16D0402C14D0202C5F
:1026E00012D0102C10D0B4F5807F0DD0B4F5007F3F
:1026F0000AD0082C08D0042C06D0022C04D04FF4A9
:1027000045710F48FEF740FDB4F5007F0FD10B4B2C
:102710009D420CD0A3F574439D4208D003F580631D
:102720009D4204D04FF446710548FEF72DFD2B88DD
:102730001C4201D0012038BD002038BD00380140C6
:10274000B081000808B520B9064B1B6801221A8227
:1027500008BD054B1B681B689847024B18680A3078
:1027600008BD00BF680300206403002008B520B93D
:10277000064B1B6801221A8208BD054B1B689B682B
:102780009847024B18680C3008BD00BF6803002052
:102790006403002008B520B9294B1B6802221A8265
:1027A00008BD0022274B1A80254B1A68137813F0B6
:1027B0007F0315D1537A13F0200F02D00221214A52
:1027C000117013F0400F05D01E4A137823F0010357
:1027D00013702BE01B4A137843F00103137025E0BC
:1027E000012B29D0022B29D1527902F00F0312F0CC
:1027F000800F0DD09B0003F1804303F5B8431B68A5
:1028000003F03003102B11D101220E4B1A700DE092
:102810009B0003F1804303F5B8431B6803F4405366
:10282000B3F5805F02D10122064B1A70064B1B687C
:102830001B699847034808BD024808BD002008BD31
:10284000680300203803002064030020F8B5254BFE
:102850001D682C8A2B7ACCB9042B17D1224B1B78FC
:10286000012B0ED1214B1A6892B2214B13445B000D
:1028700000221A6030211F4B19801B4B1A7004264E
:102880002BE010221B4B1A80072626E0AB8A9C42C5
:1028900001D8042600E002269C4200D31C46AB6906
:1028A000A4B2204698470746002000F0B1FE224619
:1028B0000146384600F0C6FD2146002000F0C4FE67
:1028C0002B8A1B1B2B826B8A1C446C823022094B87
:1028D0001A804FF44052084B1A80024B1B681E723C
:1028E000F8BD00BF6803002004030020505C0040D6
:1028F00002300020700300206E03002010B582B06B
:102900007C4B1A685378062B16D1137813F07F0F7F
:1029100078D19378012B03D1774B1B68DB6990E06A
:10292000022B03D1744B1B681B6A8AE0032B6BD10B
:10293000714B1B685B6A84E0002B41D151880029F0
:102940003ED1516821F47F41B1F5003F38D1137871
:1029500013F07F0302D19188002957D0012B0DD1AC
:10296000654B1B689B6900215079984700284FD11F
:10297000604B1B689B7A002B4CD162E0022B4BD141
:10298000537903F00F0203F0700013F0800F08D0AA
:10299000930003F1804303F5B8431B6803F0300351
:1029A00007E0930003F1804303F5B8431B6803F489
:1029B0004053524909788A4230D288BB93BB40E0E9
:1029C000082B05D1137813F07F0F2DD0002338E0AA
:1029D0000A2B2BD1137803F07F03012B28D1937A94
:1029E00043B3538843BB536823F47F43B3F5803F1D
:1029F00024D1414B1B689B69002150799847F8B15D
:102A000000231EE000231CE000231AE03C4B18E0EA
:102A1000002316E03A4B14E0002312E0002310E0FC
:102A200000230EE0364B0CE0364B0AE0002308E0B2
:102A3000002306E0002304E0002302E0002300E07E
:102A4000314B43B12B4A12680024548293612046D3
:102A5000984720460DE0284B1B681B69254A1268E1
:102A600050789847032804D1224B1B6809221A7218
:102A70003EE0204B1B681A8A4FF6FF718A4202D152
:102A800009221A7234E0022800D012B908221A7200
:102A90002EE093F90010002924DAD98801910198D9
:102AA000824202D9019A1A8214E08A4212D2124951
:102AB000096891F82C1088B2824203D20021134A8F
:102AC000117007E092FBF1F001FB102212B9012115
:102AD0000E4A1170084A126892F82C209A82FFF769
:102AE000B5FE05E003221A724FF44052084B1A80DB
:102AF00002B010BD6803002040030020E800002061
:102B000095270008452700086D27000804030020CA
:102B10006E03002070B5244B1C68228AA369B3B1F0
:102B2000AAB1A18A8A4200D30A4695B2284698479C
:102B30000646238A5B1B2382638A2B446382002020
:102B400000F074FD2A460146304600F091FC238ACD
:102B500053B14FF44052154B1A800021084600F043
:102B600073FD3022124B1A80238AA28A934204D327
:102B70000D4B1B6803221A7270BD23B10A4B1B68F0
:102B800005221A7270BD73B9074B1B6806221A72B0
:102B9000084B1A6892B2084B13445B0000221A607B
:102BA0003022034B1A8070BD680300206E030020A2
:102BB00070030020505C00400230002008B50C4B30
:102BC0001B68DA780B4949788A420AD8997851B952
:102BD000998851B99A72084B1B685B689847002026
:102BE00008BD022008BD022008BD022008BD00BFAC
:102BF00068030020E80000206403002010B5134B98
:102C00001B689A69124C2368D978587990472368D1
:102C10009A7A82B188B91A798AB99B788BB990B9B6
:102C20000C4B1B68DB68984723685A79DA72DA78AC
:102C30001A73002010BD022010BD022010BD02201A
:102C400010BD022010BD022010BD00BF40030020B7
:102C50006803002064030020414B1A68137813F0C6
:102C60007F0305D1537A23F020035372002070476D
:102C7000022B68D15388002B67D11379002B66D1C2
:102C800010B5517921F0800011F0800F08D0830039
:102C900003F1804303F5B8431B6803F0300307E0FA
:102CA000830003F1804303F5B8431B6803F44053EA
:102CB0002C4C2478A0424CD2002B4CD0937A002B81
:102CC0004BD011F0800F12D0830003F1804303F545
:102CD000B8431B6803F03003102B2ED1C4B220463A
:102CE00000F062FC3021204600F0E8FB25E0840083
:102CF00004F1804404F5B844236803F44053B3F569
:102D0000805F1AD170B9184B93F82C1000F0AAFC10
:102D100023689BB223F4804323F0700383F4405371
:102D200023600AE000F02CFC23689BB223F480436C
:102D300023F0700383F4405323600C4B1B685B69E2
:102D40009847002010BD02207047022070470220E3
:102D50007047022010BD022010BD022010BD00BF30
:102D600068030020E80000205C00002064030020CD
:102D700010B5284B1868417921F0800211F0800FBE
:102D800008D0930003F1804303F5B8431B6803F0B8
:102D9000300307E0930003F1804303F5B8431B6859
:102DA00003F440531C4C2478A2422AD2448854BBDA
:102DB0005BB3837A5BB311F0800F0ED0930003F105
:102DC000804303F5B8431A6892B222F4E04222F03D
:102DD000400282F010021A600DE0930003F180437C
:102DE00003F5B8431A6892B222F4804222F07002CE
:102DF00082F480521A60094B1B689B699847002037
:102E000010BD022010BD022010BD022010BD022006
:102E100010BD00BF68030020E8000020640300200C
:102E200008B5064B1A68537A43F020035372044BDB
:102E30001B68DB699847002008BD00BF68030020BD
:102E40006403002010B5424B1A685478137813F0CD
:102E50007F0331D1092C02D1FFF7B0FE52E0052CDF
:102E60000ED192F90330002B62DB9378002B61D1F5
:102E70009388002B60D1937A002B5FD1002041E032
:102E8000032C0BD1D378012B29D193884BBB537AD8
:102E900013F0200F27D0FFF7C3FF33E0012C24D11C
:102EA000D378012B23D193881BBB537A13F0200FC7
:102EB00021D0FFF7D1FE25E0012B04D10B2C1CD132
:102EC000FFF79CFE1EE0022B19D1012C02D1FFF767
:102ED000C3FE17E0032C14D1FFF74AFF12E00220D3
:102EE00010E002200EE002200CE002200AE00220A6
:102EF00008E0022006E0022004E0022002E00220B6
:102F000000E0022030B1134B1B685B6920469847F4
:102F1000032815D0B0B9104B1A6892B20F4B134466
:102F20005B0000221A6030220D4B1A8006220AE054
:102F3000082208E0082206E0082204E0082202E055
:102F4000092200E00822024B1B681A7210BD00BF64
:102F50006803002040030020505C00400230002045
:102F600070030020054B1A68538A20B98888C31A59
:102F700013820020704708681844704768030020D7
:102F800008B50B4B93F82C10002000F06BFB094B9D
:102F90001B68187A082806D14FF48052064B1A8015
:102FA0001022064B1A80092814BF0020012008BDFA
:102FB0005C000020680300206E03002070030020E6
:102FC00070B51B4B1A6892B21A4B13445B001B88F6
:102FD000194A1268117A09291BD05B0003F180435A
:102FE00003F5C0435D1C19781170134C22685B789F
:102FF00053702668B5F8030000F056FB7080266811
:10300000B5F8070000F050FBB0802368B5F80B203E
:10301000DA80094B1B6801221A72DB8813B9FFF7AB
:1030200011FF01E0FFF76AFCFFF7AAFF70BD00BFC8
:10303000505C0040043000206803002008B50E4BAF
:103040001B681B7A032B01D0052B05D1FFF762FD0E
:10305000094B1B681A7A08E0072B05D1074B1B6840
:10306000DB689847082200E00822034B1B681A72AD
:10307000FFF786FF08BD00BF680300204003002063
:1030800030B40E4B1D7800210FE0CCB2A30003F149
:10309000804303F5B8431A6822F4E04222F070023C
:1030A0001204120C22431A600131A942EDD340F000
:1030B0008000034B186030BC704700BFE800002060
:1030C0004C5C004008B5154B1A68137A022B01D0EE
:1030D000042B05D1FFF7BAFB104B1B681A7A16E0D8
:1030E000062B13D15378052B0AD1137813F07F0FD9
:1030F00006D1D078FFF7C4FF094B1B681B6A9847BD
:10310000084B1B689B689847082200E00822034B85
:103110001B681A72FFF734FF08BD00BF6803002068
:103120006403002040030020704700BF08B5074B30
:10313000074A136002221A72064B074A13600749B6
:10314000074A11601B68984708BD00BF480300206C
:10315000680300205C000020400300208C00002059
:103160006403002010B559E147F6FF728E4B1A60D8
:103170008E4B1B8803F00F038D4A1370002B40F019
:103180001F818C4A136803F440538B490B801368EA
:1031900003F0300389490B8013689BB223F480430A
:1031A00023F0700383F40053136013689BB223F47D
:1031B000E04323F0400383F0200313607B4B1B8824
:1031C00003F010039BB2002B39D11446136823F48B
:1031D000E14323F070031B041B0C1360FFF772FF25
:1031E00023689BB223F4804323F070039BB2724A9E
:1031F000128802F4805189B209B183F4805302F439
:10320000005292B20AB183F400536A4A1360136801
:103210009BB223F4E04323F040039BB2674A128839
:1032200002F0100189B209B183F0100302F020020C
:1032300092B20AB183F020035E4A136010BD5D4B69
:103240001B6813F0800F39D05A4C236823F4E143F4
:1032500023F070031B041B0C2360FFF733FF23686C
:103260009BB223F4804323F070039BB2524A12882E
:1032700002F4805189B209B183F4805302F4005200
:1032800092B20AB183F400534A4A136013689BB2A6
:1032900023F4E04323F040039BB2484A128802F033
:1032A000100189B209B183F0100302F0200292B23A
:1032B0000AB183F020033F4A136010BD13F4006F7E
:1032C00037D03C4C236823F070031B051B0D236093
:1032D000FFF776FE23689BB223F4804323F070034C
:1032E0009BB2354A128802F4805189B209B183F445
:1032F000805302F4005292B20AB183F400532D4A73
:10330000136013689BB223F4E04323F040039BB2A5
:103310002A4A128802F0100189B209B183F0100321
:1033200002F0200292B20AB183F02003214A136016
:1033300010BD13F4004F71D01E4C236823F07003AE
:103340001B051B0D2360FFF779FE23689BB223F456
:10335000804323F070039BB2174A128802F4805115
:1033600089B209B183F4805302F4005292B20AB1D7
:1033700083F400530F4A136013689BB223F4E043B5
:1033800023F040039BB20D4A128802F0100189B26B
:1033900009B183F0100302F0200292B20AB183F067
:1033A0002003044A136010BD445C00402E0300203B
:1033B00044030020005C00406E03002070030020E6
:1033C0009B0003F1804303F5B8431C6814F4004FDD
:1033D0000CD01A6822F070021205120D1A60144BFC
:1033E0001B78013B134A52F82330984714F0800FA2
:1033F00014D00F490B789B0003F1804303F5B843C9
:103400001A6822F4E14222F070021204120C1A60CF
:103410000B78013B084A52F823309847074B1B684A
:1034200099B2074A118013F4004F7FF49DAE10BD8E
:1034300044030020380000201C000020445C0040B1
:103440002E03002010B40132521001F1005101F599
:103450004051490007E00378447843EA042321F807
:10346000043B0230013A002AF5D110BC704700BF7E
:103470000132521001F1005101F54051490004E0C0
:103480000B6820F8023B013A0431002AF8D170475A
:1034900020F0070080B2014B18607047505C00407C
:1034A000800000F1804000F5B840036823F4EC434D
:1034B00023F07003194389B201607047800000F166
:1034C000804000F5B84003689BB223F4E04323F04A
:1034D00040039BB201F0100292B20AB183F01003D4
:1034E00001F0200189B209B183F020030360704725
:1034F000800000F1804000F5B84003689BB223F4DF
:10350000804323F070039BB201F4805292B20AB15F
:1035100083F4805301F4005189B209B183F400535C
:1035200003607047800000F1804000F5B8400368F8
:103530009BB223F4E04323F0400383F030030360A5
:10354000704700BF800000F1804000F5B84003687C
:103550009BB223F4804323F0700383F44053036051
:10356000704700BF800000F1804000F5B84003685C
:1035700023F4E24323F070031B041B0C0360704729
:10358000800000F1804000F5B840036813F4804FDC
:1035900009D0036823F4E04323F070031B041B0CE1
:1035A00043F4804303607047800000F1804000F5E1
:1035B000B840036813F0400F09D0036823F4E043D8
:1035C00023F070031B041B0C43F04003036070479F
:1035D000064B1B689BB203EBC00000F1005000F5E6
:1035E000405040004908490001607047505C00406D
:1035F000054B1B689BB203EBC000044B03445B000C
:103600004908490019607047505C004004300020B0
:10361000054B1B689BB203EBC00000F1005000F5A6
:103620004050400000887047505C0040044B1B68CD
:103630009BB203EBC000034B03445B001888704748
:10364000505C004004300020044B1B689BB203EB2D
:10365000C000034B03445B0019607047505C00409E
:10366000023000200E4B1B689BB203EBC0000D4BD9
:1036700003445B003E290AD94A0911F01F0F01D10A
:10368000013A92B2920242F400421A6070474A082C
:1036900011F0010F00D0013292021A60704700BF92
:1036A000505C004006300020C3B2000A40EA03200C
:1036B000704700BF82B00023019300932F4A136824
:1036C00043F4803313602D4B1B6803F400330093E5
:1036D000019B01330193009B1BB9019BB3F5A06FC4
:1036E000F1D1264B1B6813F4003F02D00123009355
:1036F00001E000230093009B012B3BD1204B1A6873
:1037000042F010021A601A6822F003021A601A6866
:1037100042F002021A60A3F580535A685A605A6850
:103720005A605A6842F480625A605A6842F4004211
:103730005A605A6822F47C125A605A6842F488121D
:103740005A601A6842F080721A600C4B1B6813F0C2
:10375000007FFAD0094B5A6822F003025A605A6877
:1037600042F002025A60054B5B6803F00C03082B21
:10377000F9D100E0FEE702B0704700BF0010024040
:103780000020024008B5FFF795FF08BD08B50E4BB5
:103790001A6842F001021A6059680C4A0A405A60DD
:1037A0001A6822F0847222F480321A601A6822F4B5
:1037B00080221A605A6822F4FE025A604FF41F02F7
:1037C0009A60FFF7DFFF08BD001002400000FFF81D
:1037D00010B50B4C21680B4800F014FF61680A48D3
:1037E00000F010FFA168094800F00CFFE1680848EC
:1037F00000F008FF2169074800F004FF10BD00BF7A
:1038000014030020F48100080C82000824820008C0
:103810003C8200085482000808B5FDF789FBFDF7DB
:103820004BFBFFF783FC08BD10B52B4800F05CFF95
:103830002A4800F059FF2A4800F056FF294C20463C
:1038400000F052FF284800F04FFF204600F04CFFE8
:10385000264800F049FF264800F046FF254800F0C2
:1038600043FF254800F040FF244800F03DFF20467C
:1038700000F03AFF224800F037FF2248FDF760FCD5
:10388000214C2070214800F02FFF2378303B042B7F
:103890001CD8DFE803F00306090C0F00FFF798FFC0
:1038A00014E0FDF70DFD11E0FDF778FC0EE0FDF7EB
:1038B00069FD0BE00124164B1C70FFF7ADFF4FF4C0
:1038C000FA70FDF719FC2046FDF760FB0E4B1B78E4
:1038D000782BAAD110BD00BF6C8200088882000836
:1038E000A0820008B0820008C8820008E0820008B8
:1038F000F082000800830008148300082883000871
:103900003083000800380140780300203C83000821
:10391000EC020020002103E0094B5B5843500431C6
:103920000848094B42189A42F6D3084A02E000239D
:1039300042F8043B064B9A42F9D3FDF71FF9704752
:10394000F086000800000020D0020020D0020020F5
:103950000004002003460244934202D003F8011BF6
:10396000FAE770472DE9F04788B0149F002B1E46F8
:103970001299B8BF03F1004327F02007B6BF1E46D7
:1039800000232D23462F1446109DDDF84CA00B700C
:1039900003D0452F03D1013501E0032300E00223CA
:1039A00007AA049206AA03928DE828042246334609
:1039B00001F0DAFE472F804602D1119BDB0728D5A4
:1039C000462F08EB050911D198F80030302B0AD1A9
:1039D0000022002320463146FCF7F0FF18B9C5F15C
:1039E0000105CAF80050DAF800309944002200239B
:1039F00020463146FCF7E2FF08B9302202E0CDF85C
:103A00001C9006E0079B994503D9591C07911A7031
:103A1000F8E74046079B159AC8EB0303136008B00C
:103A2000BDE8F087034673B50029B8BF494203F8E3
:103A3000022BB4BF2D222B22092942701ADD0DF171
:103A4000070216460A2591FBF5F405FB1411092C13
:103A500001F1300102F8011D2146F4DC3031541E21
:103A600002F8011CB4421A460AD214F8012B03F8DA
:103A7000012BF7E71A463024214402F8024B597013
:103A8000101A02B070BD00002DE9F04F91B00C4645
:103A9000DDF8688016461F46054603F09BF803686C
:103AA00018460993FCF762FB00230E93D8F8003008
:103AB0000A90073323F0070303F1080294F81890E3
:103AC000D4F800B0C8F80020D3E90023C4E91223D9
:103AD000D4F84CA0D4F848802AF000430B934FF060
:103AE000FF32A74B40460B99FCF79AFFA0B94FF065
:103AF000FF32A34B40460B99FCF774FF60B90022DC
:103B0000002340465146FCF763FF10B12D2384F893
:103B100043309C4B9C4A0AE042465346404651463D
:103B2000FCF77EFF002800F09281984B984AB9F18B
:103B3000470F8CBF90469846032323612BF0040364
:103B400023604FF0000A3DE0B9F1670F00F08A8171
:103B5000B9F1470F00F0868123600193636800216B
:103B60000DF13302059002920093424653460691AE
:103B7000CDF81090CDF80CE02846FFF7F3FE09F0E1
:103B8000DF03472B804600F08481B9F1650F0D9962
:103B900000F28D8101394A4604F150000D91FFF782
:103BA00041FF0E9A82468318012A236100F37C812B
:103BB0002268D10700F178819DF8333013B12D23AD
:103BC00084F84330009733460FAA2146284600F078
:103BD0009FF9013002D14FF0FF3096E123685A057A
:103BE00001D4236965E0B9F1650F40F2D580D4E9CD
:103BF000120100220023FCF7E1FE78B30123654A9D
:103C000031462846B8470130E5D00E9B0D9A9A42BE
:103C10000BDB2368D80708D423689B0740F1118188
:103C20004FF0000804F1190906E10A9B099A314690
:103C30002846B8470130CED04FF0000804F11A09E9
:103C40000E9B013B9845E7DA01234A463146284658
:103C5000B8470130BFD008F10108F1E70D9B002BF8
:103C600029DC01234B4A31462846B8470130B2D0FF
:103C70000D9B23B90E9B13B92368D907CCD50A9B9A
:103C8000099A31462846B8470130A4D04FF00009C0
:103C900004F11A0A0D9B5B42994509DA0123524649
:103CA00031462846B847013095D009F10109F1E7BE
:103CB0000E9B4246A7E00E9AA36D9A42A8BF1A46F1
:103CC000002A914606DC4FF0000A29EAE97904F15E
:103CD0001A0B11E01346314642462846B8470130D8
:103CE000F1D178E701235A4631462846B8470130DA
:103CF0003FF471AF0AF1010AA36DC9EB03029245CB
:103D0000F0DB08EB03090D9A0E9B9A420FDB236848
:103D1000DA070CD40E9B0D9A9844C9EB08089B1A3D
:103D20009845A8BF9846B8F1000F08DC0FE00A9B41
:103D3000099A31462846B8470130EBD14BE7434654
:103D40004A4631462846B84701303FF444AF4FF069
:103D5000000928EAE87804F11A0A09E0012352462A
:103D600031462846B84701303FF435AF09F1010923
:103D70000D9A0E9B9B1AC8EB03039945EEDB4BE7AC
:103D8000FFFFEF7FCC830008D0830008D4830008B6
:103D9000D8830008DC8300080E9A012A01DCDB07C7
:103DA00038D50123424631462846B84701303FF412
:103DB00012AF0A9B099A31462846B84701303FF4B2
:103DC0000AAFD4E9120100220023FCF7F7FD20B16D
:103DD0004FF0000804F11A090EE00E9B08F10102F1
:103DE000013B19E001234A4631462846B8470130D5
:103DF0003FF4F1AE08F101080E9B013B9845F1DB61
:103E0000534604F1500231462846B84701307FF44A
:103E100003AFE0E64246012331462846B847013069
:103E2000EED1D8E601234A4631462846B84701304C
:103E30003FF4D1AE08F10108E3680F9A9B1A984548
:103E4000F0DBE0680F9B9842B8BF18465DE06268FF
:103E50000EA8531C0DF1340E4BF480637FF474AE46
:103E6000062201E012B90122626075E60021069186
:103E70000DF133018DE80C00236005904246CDF82A
:103E80001090CDF80CE0029153462846FFF76AFDEA
:103E900080460D9BD81C02DB626893421DDDA9F1B0
:103EA00002095FFA89F970E60133236184E6B9F10A
:103EB000660F14D10029636807DD216113B92268F8
:103EC000D2071DD501330B4419E013B92268D0077E
:103ED00001D5023313E0012311E04FF067090D9B78
:103EE0000E9A934205DB22682361D10708D501337E
:103EF00005E0002BD4BFC3F1020301231344236167
:103F00000D9B4FF0000AA36556E611B0BDE8F08F97
:103F10002DE9F04791461F460A698B680646934291
:103F2000B8BF1346C9F8003091F843200C46DDF8BD
:103F3000208012B10133C9F800302368990642BFCE
:103F4000D9F800300233C9F80030256815F00605AD
:103F500010D104F1190A07E00123524639463046D0
:103F6000C04701301AD00135E368D9F800209B1A08
:103F70009D42F1DB94F843302268003318BF0123DF
:103F800092060FD5E118302081F843005A1C94F8AE
:103F900045102244023382F8431003E04FF0FF3013
:103FA000BDE8F08704F1430239463046C04701308E
:103FB000F4D02268D9F80050E36802F00602042A1F
:103FC00008BF5D1B2269A3680CBF25EAE5750025C3
:103FD0009342C4BF9B1AED184FF000091A344D45A7
:103FE00009D00123224639463046C0470130D5D09A
:103FF00009F10109F3E70020BDE8F0872DE9F0435E
:1040000017460A7E85B06E2A984606460C460C9BDB
:1040100001F1430E00F0AE8011D8632A22D009D8F6
:10402000002A00F0BB80582A40F0CA8081F8452061
:10403000834955E0642A1ED0692A1CD0C0E0732A47
:1040400000F0B08009D86F2A2ED0702A40F0B880D6
:104050000A6842F020020A603EE0752A24D0782ADD
:104060003AD0ADE01A6801F14205111D19601368DC
:1040700084F84230A8E021681A6811F0800F02D05D
:10408000111D196008E011F0400F02F104011960E0
:1040900002D0B2F9003000E01368002B3CDA2D2288
:1040A0005B4284F8432037E021681A6811F0800FE2
:1040B00002D0111D196007E011F0400F02F1040158
:1040C000196001D0138800E01368227E5C496F2AD2
:1040D00014BF0A2208221BE078225A4984F845209E
:1040E0002268186812F0800F00F104051D6003D1EA
:1040F000550601D5038800E00368D00744BF42F0AD
:10410000200222601BB9226822F0200222601022C5
:10411000002084F8430001E049490A226568002D27
:10412000A56008DB206820F0040020602BB9002D7A
:104130007DD175460CE0002B79D07546B3FBF2F0CB
:1041400002FB1033CB5C05F8013D03460028F5D196
:10415000082A0BD12368DA0708D5236962689A42D6
:10416000DEBF302305F8013C05F1FF35C5EB0E033A
:1041700023612EE008681A6810F0800F496903D0A7
:10418000101D1860136808E010F0400F02F10400E1
:104190001860136801D0198000E0196000232361C2
:1041A000754616E01A68111D1960156800216268CD
:1041B000284602F097FD08B1401B6060636804E088
:1041C00004F1420584F8422001232361002384F88E
:1041D0004330CDF800803B4603AA21463046FFF726
:1041E00097FE013002D14FF0FF3026E023692A46C6
:1041F00039463046C0470130F5D023689B0710D5BB
:10420000002504F1190907E001234A4639463046E2
:10421000C0470130E7D00135E368039A9B1A9D42FD
:10422000F2DBE068039B9842B8BF184605E00B78C4
:1042300004F1420584F842308AE705B0BDE8F08316
:10424000DE830008EF8300082DE9F04F9A468B6863
:1042500016465A1EB2F5AE7F88BF6FF4AE7287B0B5
:1042600082BF9B18019340F25D13884696BF0023DE
:104270008B6001930B684FF0000B43F4F06348F838
:104280001C3B07460C4645465A46D946CDF810B069
:10429000CDF80CB0CDF808B0A168002900F0E58099
:1042A00033681B78492B70D016D8392B0DD8312B99
:1042B00040D22D2B46D002D82B2B43D0D5E02E2B2D
:1042C00000F09280302B23D0CFE0452B00F095807A
:1042D000462B77D0412B0CE0652B00F08E800AD85E
:1042E000542B75D002D84E2B34D0BEE0592B75D04C
:1042F000612B46D0B9E06E2B2CD004D8662B61D050
:10430000692B42D0B1E0742B62D0792B66D0ACE03F
:10431000206810F4807F0DD0019B20F08000206089
:1043200009F10109002B00F08780013B0131019365
:10433000A16081E012EB0B0F40F09780216821F41F
:10434000C07105E02168080640F18F8021F08001EE
:1043500021606FE06AB9B9F1000F0CD1216801F456
:10436000E060B0F5E06F06D121F4F0612160012238
:1043700060E0022A5DD0BBF1010F1ED0BBF1040F3B
:104380001AE0012A71D1022254E0BBF1000F0ED1D4
:10439000B9F1000F6CD1216801F4E060B0F5E06F75
:1043A0006AD121F4F06121604FF0010B42E0BBF1D2
:1043B000030F02D0BBF1050F57D10BF1010B5FFAD0
:1043C0008BFB37E0BBF1020F4FD14FF0030B31E015
:1043D000BBF1060F49D14FF0070B2BE0BBF1070FE4
:1043E00043D14FF0080B25E0216888053DD521F425
:1043F00020712160CDF808901CE0216801F4A060D4
:10440000B0F5806F04D048052FD5B9F1000F33D037
:10441000880558BF029821F4F06158BFC0EB09002D
:1044200041F4C0715CBF0390049521604FF0000916
:1044300000E003222B700135A368013BA3602369D0
:10444000013323617368013B002B736003DD336824
:104450000133336020E7D4F8803131463846059285
:104460009847059A00283FF417AFB9F1000F03D021
:10447000236823F480732360013A012A0ED845454E
:104480000AD9D4F87C31324615F8011D38469847D0
:104490002369013B2361F2E70126ADE00BF1FF3315
:1044A000062B22D8BBF1020F12D9ABF1030B5FFA36
:1044B0008BFBCBEB050B5D4517D0D4F87C31324636
:1044C00015F8011D384698472369013B2361F2E73F
:1044D0004545E1D9D4F87C31324615F8011D3846FE
:1044E00098472369013B2361F2E72368DA052CD55D
:1044F0005B050CD54545CFD9D4F87C31324615F84B
:10450000011D384698472369013B2361F2E715F8FE
:10451000011C2369652903F1FF3305F1FF3B23618A
:104520000DD045290BD0D4F87C3132463846984717
:10453000236915F8021C013BA5F1020B2361D4F895
:104540007C313246384698475D46266816F010069C
:1045500051D12E70236803F4C063B3F5806F05D189
:10456000029BC3EB09035A4263B915E0039B9BB15D
:1045700004990A2332460131384600F095FF039B27
:10458000049DC21A04F26F139D4228BF04F5B7754B
:104590001B49284600F0B4F800224146384600F096
:1045A000EBFE2268804612F0020F8946DAF80030EE
:1045B00003D01A1DCAF8002006E012F0040503F12A
:1045C0000402CAF8002003D01B68C3E900890EE08A
:1045D0001F6802460B46FCF723FA18B1284600F084
:1045E0008BF803E040464946FCF778FA3860E36808
:1045F0000133E36000E00026304607B0BDE8F08FED
:10460000008400080FB40A4B13B51C6824B1A369D9
:1046100013B9204601F030FF05AB049AA16820468B
:10462000019303F08FF902B0BDE8104004B0704769
:104630006001002070B50E46054618B183690BB9BC
:1046400001F01AFFAB69AC6813B9284601F014FFFA
:10465000224B9C4201D16C6808E0214B9C4201D165
:10466000AC6803E01F4B9C4208BFEC68A3891B07A2
:1046700001D523693BB92146284600F07BFF10B1E4
:104680004FF0FF3070BD013EA36816F8011F013BDB
:10469000A36091B1002B04DAA269934206DB0A29D8
:1046A00004D023685A1C22601970EDE72246284680
:1046B00000F00CFF0130E7D1E2E7002B08DA2246D8
:1046C0000A21284600F002FF0130D9D00A2070BD2F
:1046D00023680A205A1C2260187070BD6884000884
:1046E00088840008A8840008024B01461868FFF778
:1046F000A1BF00BF60010020004870470000C07FDC
:104700000EB400B54FF402719CB0ADF814106FF008
:104710000041049107914FF6FF711DAB0290069086
:10472000084853F8042BADF81610006802A901934D
:1047300002F0ECFF029B00221A701CB05DF804EB43
:1047400003B07047600100202DE9F0410F4690460C
:1047500002F0A6FD04460D46B8F1000F11D0C7F3D4
:104760000A53C3F16B03002B0BDD1B0503F17F55CF
:10477000002405F5401522462B46FBF7B7FEBDE8A1
:10478000F08120462946BDE8F081000000000000CD
:104790002DE9F04F1F469FB00023824638461A93FA
:1047A0000691159202F013FA06460068FBF7DEFC4C
:1047B0000446069B4FF000084FF000091993199B1F
:1047C0001A780D2A05D8092A13D2002A00F09681FA
:1047D00011E02B2A04D02D2A04D0202A0BD108E086
:1047E000002200E001220E925A1C19925B7823B934
:1047F00084E10133E2E700230E93199D2B78302BDF
:104800005DD16B78582B01D0782B4DD10E9B029740
:1048100001931AAB00939E4A1BAB19A9504601F0B5
:1048200000FF10F00706044600F07185062E05D142
:104830000135002319950E9300F069BD1A9A3AB11B
:1048400035211CA802F013FE1A99504602F098FA7E
:10485000062E22D8DFE806F0040D08181D0D04000E
:104860004FF00009C84618E0DDF87080DDF874905C
:1048700013E01D9B1B9A23F4801302F23342DDF8F0
:10488000708043EA025908E0DFF808924FF0000810
:1048900003E06FF000494FF0FF38210740F1378502
:1048A00049F0004900F033BD199B5A1C19925B78FE
:1048B000302BF9D0002B00F02A85012300E00023E3
:1048C0000893199B0A22099300239B46059304939E
:1048D00019980578A5F13003D9B209290ED80499A1
:1048E00001300829C9BF059902FB0B3B02FB0133CC
:1048F0000593049B199001330493E9E7224631683C
:1049000003F08FF928B100202B460246049D014692
:104910004DE0199B1A191992049A1B5D002A3FD188
:104920001046302B05D1199B01305A1C19925B7827
:10493000F7E7A3F13102082A3FD8199A09920246F3
:1049400000200546303B00F1010123D00A442946EE
:104950002E180A24B1420CD001314F1E082F02DC60
:1049600004FB0BFBF6E71029DEBF059F67430597A5
:10497000F0E72844082800F1010503DC0A2101FBC7
:104980000B3B06E0102DDFBF05980A2101FB003329
:1049900005930021199B581C19905B78084601E08B
:1049A0000246049DA3F130010929CBD90121652BD1
:1049B00001D0452B54D16DB904E0652B40F0B5848E
:1049C0000022012128B9089B002B00F097800546A2
:1049D00000E00025199B069301331993069B5B7831
:1049E0002B2B06D02D2B02D00024079408E00123A6
:1049F00000E000230793069B02331993069B9B78E4
:104A0000A3F13004092C29D8302B04D1199B5C1C4C
:104A100019945B78F8E7A3F13104082C20D8A3F1AE
:104A20003007199B4FF00A0E1E46199B5C1C199407
:104A30005B78A3F1300CBCF1090F03D80EFB0737EC
:104A4000303FF2E7A41B082C44F61F6402DCBC4292
:104A5000A8BF3C46079E26B1644202E0069C19941A
:104A60000024002D54D1002840F05184089A002AD7
:104A700040F04D84002941D14E2B20D002DC492B3F
:104A80000AD03BE0692B07D06E2B18D036E000BF70
:104A9000308400080000F07FAB4919A801F0F3FF53
:104AA00060B3199BA949013B19A8199301F0EBFFC9
:104AB00010B9199B01331993DFF8AC921AE0A4499D
:104AC00019A801F0E0FFC8B1199B1B78282B0FD162
:104AD0001CAAA04919A801F0E9FF052808D11D9BCF
:104AE000DDF8708043F0FF4949F4E00900F00FBCA5
:104AF000DFF878924FF0000800F009BC069B19938C
:104B0000159B002B00F00E8400230E9300F001BCD7
:104B1000049BA71A002B08BF2B462C46102D584685
:104B2000A8BF10240493FBF76BFC092C8046894630
:104B300013DD894B03EBC40353E91223FBF7D6FCC7
:104B4000804605988946FBF75BFC02460B464046CB
:104B50004946FBF719FB804689460F2D33DC002FB1
:104B600000F0D58322DD162F07DC7B4D424605EB96
:104B7000C7014B46D1E9000113E0C5F125039F426F
:104B800021DC754CC5F10F0504EBC5017D1B4246C8
:104B9000D1E900014B4604EBC504FBF7A7FCD4E9BF
:104BA0000023FBF7A3FC80468946B0E317F1160FFC
:104BB00009DB694D4046A5EBC703D3E9002349460D
:104BC000FBF7BEFDEFE72C1B3C44002C5DDD14F031
:104BD0000F010AD0604B424603EBC101D1E900014D
:104BE0004B46FBF783FC8046894634F00F0400F007
:104BF000C180B4F59A7F0FDD4FF0000BCDF810B0F7
:104C0000CDF81CB0CDF818B02223CAF80030DFF878
:104C100058914FF0000889E14046494600234F4E25
:104C200024110593012C0CDDE20704D5D6E90023FD
:104C3000FBF75CFC0123059A6410013205920836EB
:104C4000F0E70BB180468946444B059AA9F15479A7
:104C500003EBC201D1E9000142464B46FBF746FC9B
:104C600021F0004389460A461B0D3D491B058B4236
:104C70008046C1D8A1F580118B4286BFDFF8F09045
:104C80004FF0FF3802F1547974E073D0644214F0AD
:104C90000F020AD0304B404603EBC2034946D3E92A
:104CA0000023FBF74DFD80468946241162D01F2C5E
:104CB00008DD4FF0000BCDF810B0CDF81CB0CDF8EA
:104CC00018B02CE14046494614F0100F0CBF0023E9
:104CD0006A23244E05930023002C09DDE20704D546
:104CE000D6E90023FBF702FC012364100836F3E742
:104CF0000BB180468946059BEBB1C9F30A53C3F15A
:104D00006B03002B494616DD1F2B0EDD342BDEBF57
:104D1000203B4FF0FF3202FA03F34FF00008CCBF04
:104D20004FF05C7903EA010905E04FF0FF3202FA27
:104D300003F303EA08080022002340464946FBF734
:104D40003DFE0028B5D117E0D18300085B84000840
:104D5000D983000844840008D8840008A08500088E
:104D60000000A07C088400080000F07F0000F8FF2D
:104D7000FFFFEF7F00230593CDF800B02B46049A88
:104D80000999504602F04EF8079000283FF434AFDE
:104D9000002FC7F10003A8BF00230F934FF0000BB3
:104DA00027EAE7731493CDF810B0079B5046596873
:104DB00001F0B1FF069000283FF426AF079B0C30AE
:104DC0001A6903F10C010232920001F099FF1CAB49
:104DD00001931BAB009342464B465046CDE90A89EE
:104DE00002F0CFFA1A9000283FF40EAF012150468E
:104DF00002F0A3F8049000283FF406AF1B9B05992E
:104E0000002BACBF0F9A149A1C9CACBFD618D21AB8
:104E1000A3EB01032344B14903F1FF33ACBF149A60
:104E20000F9E8B42C4F1360480F28580C91A1F2977
:104E3000C8BFAB4D4FF00107D4BF07FA01F3ED1A1D
:104E4000A4EB0104D9BF0993002507FA05F50997DA
:104E50003719059BBE4214441C443346A8BF3B4649
:104E6000A342A8BF2346002BC2BFFF1AE41AF61ABA
:104E70000F9B002B63D1002F7ADC149B002B40F09A
:104E80008180002C00F38880002E00F38F80069A2A
:104E90001A99504602F0A5F9834600283FF4B4AEB3
:104EA000C3680024C4600499089302F07EF9A0420C
:104EB00080F28B80089B002B40F00282B8F1000F3B
:104EC00040F0FE81C9F31303002B40F0F98129F073
:104ED00000431B0D1B05B3F1D66F40F2F181DBF8E7
:104EE0001430002B6CD059460122504602F00CF9C8
:104EF0000499834602F059F9002840F3E18129F032
:104F00000043059A1B0D1B05002A00F08D80B3F1AC
:104F1000D66F00F38980B3F15C7F00F3D381222345
:104F20004FF000084FF00009CAF80030079B002B33
:104F300040F0D981EBE101230025099388E71A4667
:104F40000499504602F092F8049000283FF45CAEB9
:104F500001461A9A504601F0F9FF089000283FF4E4
:104F600053AE1A99504601F00BFF089B1A9382E743
:104F70003A461A99504602F0C7F81A9000287FF472
:104F80007CAF41E6149A0699504602F06FF80690FD
:104F900000287FF476AF37E622460699504602F0A5
:104FA000B3F8069000287FF46FAF2DE632460499DF
:104FB000504602F0A9F8049000287FF468AF23E679
:104FC000DBF81030012B8EDC7AE161D1089AC9F34D
:104FD000130322B343494A468B422ED1059B4146D7
:104FE00063B1414B1340B3F1D46F07D81B0DC3F12C
:104FF0006B034FF0FF3000FA03F301E04FF0FF3393
:105000008B421AD139498A4202D101333FF4FCADB7
:10501000354B4FF00008134003F5801950E163B998
:10502000B8F1000F09D16AE7A3F580136FEA1359AD
:105030004FF0FF386FEA095942E115B115EA090F3F
:1050400002E0099B13EA080F00F03A81089B059AD9
:105050004046494653B1FFF777FB02460B46DDE970
:105060000A01FBF791F88046894629E1FFF76CFBBE
:1050700002460B46DDE90A01FBF784F80022002313
:1050800080468946FBF79AFC00287FF448AF17E179
:105090000499584602F0C3F900224FF080430646B7
:1050A0000F46FBF79FFC00283FD0089B13B100265A
:1050B0000F4F10E0B8F1000F03D1C9F313033BB950
:1050C0001AE0B8F1010F03D1B9F1000F3FF427AF97
:1050D000084F00260024064D3CE000BF02FCFFFF05
:1050E000E2FBFFFFFFFF0F000000F07FFFFFEF7FFD
:1050F0000000F03F0000F0BF0022994B30463946D7
:10510000FBF766FC40B90022964B30463946FBF768
:10511000EDF904460D4601E0089C924D05F100436F
:1051200016941793DDE9166714E08E4B0022304683
:105130003946FBF7DBF9089B04460D4623B901F11C
:1051400000431090119303E002460B46CDE9102373
:10515000DDE9106729F000431B0D1B050993099A2F
:10516000814B9A422BD1DDE90A23A9F154794046BB
:105170004946CDE90C2302F093F802460B4630462F
:105180003946FBF7B3F942464B46FAF7FDFF21F0EB
:1051900000431B0D754A1B05934280460CD9744B86
:1051A0000D9A9A4203D10C9B01333FF42DADDFF8E9
:1051B000C0914FF0FF3872E001F1547939E0059B5E
:1051C0003BB3099BB3F1D46F23D85DA3D3E900238C
:1051D00020462946FBF706FCB8B129462046FBF7D6
:1051E0005DFC002808BF0120FBF70AF9089B044674
:1051F0000D4623B901F100431290139303E00246D8
:105200000B46CDE91223DDE91267099A07F1D6634F
:105210009F1ADDE90A0102F043F802460B463046C8
:105220003946FBF763F9DDE90A23FAF7ADFF80465B
:105230008946059B9BBB29F000431B0D099A1B0562
:105240009A424E462BD129462046FBF7FFFBFBF73F
:10525000E7F80B46024629462046FAF793FF089BDB
:1052600004460D462BB9B8F1000F02D1C9F313065D
:105270007EB135A3D3E9002320462946FBF7A8FBDE
:1052800088BB33A3D3E9002320462946FBF7BEFBA6
:1052900004E031A3D3E90023FBF79AFB18BB1A996A
:1052A000504601F06DFD0699504601F069FD0499E4
:1052B000504601F065FD5946504601F061FD74E528
:1052C000059B83B12B4B40460D9300230C9349461D
:1052D000DDE90C23FBF70AF98046894619B910B9B4
:1052E0002223CAF800301A99504601F049FD069968
:1052F000504601F045FD0499504601F041FD0799E3
:10530000504601F03DFD5946504601F039FD159BD0
:1053100013B1199B159A13600E9B1BB1424609F1FC
:10532000004307E042464B4604E000252A4601219F
:10533000FFF73FBB104619461FB0BDE8F08F00BF16
:105340000000C0FFFFFFDF419535A094FFFFDF3F66
:1053500035E5AF350000E03F9535A094FFFFCF3F26
:105360000000F03F0000E03F0000E07FFFFF9F7C77
:10537000FFFFEF7F00005039054B10B41B68054C50
:105380001B6A002B08BF234610BCFFF701BA00BF01
:1053900060010020640100202DE9F0478046894625
:1053A00092461E460F463D46089815F8014B01F0FF
:1053B0000BFC2044427802F0080202F0FF030AB11D
:1053C0002F46F0E72D2C03D1BD1C7C78012303E090
:1053D0002B2C04BF7C78BD1C16B1102E0AD15EE0C8
:1053E000302C5AD12A7802F0DF02582A50D16C783A
:1053F00010260235002B14BF4FF000426FF0004220
:10540000B2FBF6FE06FB1E2100221046A4F1300777
:10541000092F01D83C460AE0A4F14107192F01D811
:10542000373C04E0A4F16107192F13D8573CA6427A
:1054300010DD571C0BD0864507D301D1A14203DBF9
:1054400000FB0640012202E070464FF0FF3215F8E3
:10545000014BDBE7511C0ED1002B4FF0220314BF90
:105460004FF000406FF00040C8F80030BAF1000F74
:1054700007D1BDE8F08703B14042BAF1000F11D067
:105480000AB1013D00E04D46CAF80050BDE8F08782
:105490003024002EAED10826ACE70A26AAE7302C2D
:1054A000A0D0A7E7BDE8F08737B5064C064D2468C5
:1054B000246A002C08BF2C460094FFF76DFF03B050
:1054C00030BD00BF6001002064010020F8B50F4628
:1054D0001446054618B183690BB900F0CDFF224B85
:1054E0009C4201D16C6808E0204B9C4201D1AC6821
:1054F00003E01F4B9C4208BFEC68A369A360A3892B
:105500001A0709D523693BB123682069FEB2181A2E
:10551000636998420FDB08E02146284600F02AF82C
:105520000028F1D04FF0FF361BE02146284600F05E
:1055300039FF0028F6D1A3680130013BA36023683E
:105540005A1C22601F706369984204D0A389DB074C
:1055500007D50A2E05D12146284600F023FF002852
:10556000E0D13046F8BD00BF688400088884000898
:10557000A8840008324B70B51D6806460C4625B15C
:10558000AB6913B9284600F077FF2E4B9C4201D13E
:105590006C6808E02C4B9C4201D1AC6803E02B4BBB
:1055A0009C4208BFEC68B4F90C309AB215071DD4C0
:1055B000D00602D4092232603AE0510712D5616B5D
:1055C00041B104F14403994202D0304601F09AFF00
:1055D00000236363A38923F02403A3810023636072
:1055E00023692360A38943F00803A38123694BB98E
:1055F000A38903F42073B3F5007F03D0214630461E
:1056000001F01AFBA28912F0010305D00023A36068
:1056100063695B42A36103E0920758BF6369A360BB
:1056200023695BB9B4F90C3003F0800080B230B16B
:1056300043F04003A3814FF0FF3070BD002070BDE8
:10564000600100206884000888840008A88400089D
:105650002DE9F74F03690C6980469C427FDC013CD1
:1056600001F114074FEA840E00F1140606EB0E0355
:1056700057F82450019356F824300135B3FBF5F563
:1056800007EB0E09C5B34FF0000A3846B446D346BF
:1056900050F8043B9AB205FB02A21B0C4FEA124AD7
:1056A00005FB03A392B2C2EB0B0BBCF800204FEA40
:1056B000134A5A441FFA83FBDCF800308145CBEBD8
:1056C000134303EB224392B242EA03424FEA234BD5
:1056D0004CF8042BDCD256F80E306BB9019B043B1E
:1056E0009E421A4602D3C8F8104005E01268043BF7
:1056F000002AF8D1013CF3E7404601F056FD0028AE
:105700002BDB304601354FF0000E57F8042B0368B1
:1057100091B2C1EB0E0E120C99B27144C2EB13435D
:1057200003EB214389B24FEA234EB94541EA0343D3
:1057300040F8043BE9D256F8242006EB840362B912
:10574000043B9E421A4602D3C8F8104005E0126896
:10575000043B002AF8D1013CF3E7284600E0002092
:1057600003B0BDE8F08F00002DE9F04F456A95B019
:105770008246219CCDE9022345B9102001F098FA18
:10578000CAF82400456085600560C560DAF82430F9
:10579000196859B15A68012393404A608B6050469A
:1057A00001F0EEFADAF8243000221A60039BA04AD6
:1057B000002BBDBF01232360039B0023BCBF23F04C
:1057C00000430393DDF80C80A8BF236028F000435A
:1057D0001B0D1B0593421DD142F20F73209A1360DB
:1057E000029B43B9934A944BC8F31300002814BF9B
:1057F0001846104600E09048229B002B00F046859A
:10580000C37813B100F1080300E0C31C229A1360AF
:1058100000F03CBDDDE90245002200232046294678
:10582000FBF7CCF8074658B1209A01231360229B5E
:10583000002B00F01E8581481860013800F026BD5D
:1058400012AB019313AB009322462B46504601F056
:1058500098FDC8F30A56049056B1C5F3130343F0FC
:105860007F51204641F44011A6F2FF3611971DE00A
:10587000139B129E1E4406F23243202B0ADD029A2D
:1058800006F21240C3F1400322FA00F008FA03F3D3
:10589000184304E0C3F12000029B03FA00F0FAF77A
:1058A000AFFD0123A1F1F871013E11930022644B79
:1058B000FAF768FC58A3D3E90023FAF717FE58A3B8
:1058C000D3E90023FAF760FC044630460D46FAF7A8
:1058D000A7FD55A3D3E90023FAF708FE02460B46BD
:1058E00020462946FAF750FC04460D46FBF7AEF871
:1058F00000228346002320462946FBF769F858B169
:105900005846FAF78DFD02460B4620462946FBF71E
:1059100055F808B90BF1FF3BBBF1160F0DD8DDE9C7
:105920000223484901EBCB01D1E90001FBF76EF8F6
:1059300030B10BF1FF3B002300E00123109300E0A6
:105940001090129B9E1B731E079343BFC3F1000868
:10595000002307934FF00008BBF1000F06DB079B05
:10596000CDF82CB05B440793002705E00023CBEB78
:105970000808CBF100070B931E9B092B28D8052B99
:10598000C4BF043B1E931E9BC8BF0025A3F10203A6
:10599000D8BF0125032B20D8DFE803F0060E020450
:1059A000012302E0012308E000230A931F9B002B40
:1059B0001DDD9946059321E000230A931F9B0BEB05
:1059C000030909F10103012B0593B8BF012315E079
:1059D000012500231E930A9501E001230A934FF04D
:1059E000FF390022CDF8149012231F9206E04FF0E9
:1059F00001094B46CDF81490CDF87C90DAF824409C
:105A000000226260042101F114029A421CD86268EB
:105A1000490001326260F6E761436F63A787D23FB6
:105A2000B3C8608B288AC63FFB799F501344D33F8D
:105A30000000F07F5884000861840008DD830008BE
:105A40000000F83FD88400086168504601F063F90F
:105A5000DAF8243020601B680693059B0E2B00F2B9
:105A60005B81002D00F05881DDE90234BBF1000FAD
:105A7000CDE90E3430DD9F4A0BF00F034FEA2B15B2
:105A800002EBC303E80618CBCDE908340CD5DDE9F9
:105A90000E01994B05F00F05D3E90823FAF750FEE4
:105AA0000324CDE9020100E00224934E6DB1E90721
:105AB00008D5DDE90801D6E90023FAF717FDCDE99D
:105AC000080101346D100836F0E7DDE90823DDE94F
:105AD0000201FAF735FE20E0CBF1000505B3DDE960
